{"abi":[{"inputs":[{"internalType":"uint256","name":"minimum","type":"uint256"},{"internalType":"address","name":"creator","type":"address"}],"stateMutability":"nonpayable","type":"constructor"},{"inputs":[{"internalType":"uint256","name":"id","type":"uint256"}],"name":"approveRequest","outputs":[],"stateMutability":"payable","type":"function"},{"inputs":[{"internalType":"address","name":"","type":"address"}],"name":"approvers","outputs":[{"internalType":"bool","name":"","type":"bool"}],"stateMutability":"view","type":"function"},{"inputs":[],"name":"approversCount","outputs":[{"internalType":"uint256","name":"","type":"uint256"}],"stateMutability":"view","type":"function"},{"inputs":[],"name":"contribute","outputs":[],"stateMutability":"payable","type":"function"},{"inputs":[{"internalType":"string","name":"description","type":"string"},{"internalType":"uint256","name":"value","type":"uint256"},{"internalType":"address","name":"recipient","type":"address"}],"name":"createRequest","outputs":[],"stateMutability":"payable","type":"function"},{"inputs":[{"internalType":"uint256","name":"id","type":"uint256"}],"name":"finalizeRequest","outputs":[],"stateMutability":"payable","type":"function"},{"inputs":[],"name":"manager","outputs":[{"internalType":"address","name":"","type":"address"}],"stateMutability":"view","type":"function"},{"inputs":[],"name":"minimumContribution","outputs":[{"internalType":"uint256","name":"","type":"uint256"}],"stateMutability":"view","type":"function"},{"inputs":[{"internalType":"uint256","name":"","type":"uint256"}],"name":"requests","outputs":[{"internalType":"uint256","name":"id","type":"uint256"},{"internalType":"string","name":"description","type":"string"},{"internalType":"uint256","name":"value","type":"uint256"},{"internalType":"address","name":"recipient","type":"address"},{"internalType":"bool","name":"complete","type":"bool"},{"internalType":"uint256","name":"approvalCount","type":"uint256"}],"stateMutability":"view","type":"function"}],"devdoc":{"kind":"dev","methods":{},"version":1},"evm":{"assembly":"    /* \"Campaign.sol\":507:2532  contract Campaign {... */\n  mstore(0x40, 0x80)\n    /* \"Campaign.sol\":764:765  0 */\n  0x00\n    /* \"Campaign.sol\":745:765  uint numRequests = 0 */\n  dup1\n  sstore\n    /* \"Campaign.sol\":1061:1177  constructor(uint minimum, address creator) {... */\n  callvalue\n  dup1\n  iszero\n  tag_1\n  jumpi\n  0x00\n  dup1\n  revert\ntag_1:\n  pop\n  mload(0x40)\n  sub(codesize, bytecodeSize)\n  dup1\n  bytecodeSize\n  dup4\n  codecopy\n  dup2\n  dup2\n  add\n  0x40\n  mstore\n  dup2\n  add\n  swap1\n  tag_2\n  swap2\n  swap1\n  tag_3\n  jump\t// in\ntag_2:\n    /* \"Campaign.sol\":1124:1131  creator */\n  dup1\n    /* \"Campaign.sol\":1114:1121  manager */\n  0x02\n  0x00\n    /* \"Campaign.sol\":1114:1131  manager = creator */\n  0x0100\n  exp\n  dup2\n  sload\n  dup2\n  0xffffffffffffffffffffffffffffffffffffffff\n  mul\n  not\n  and\n  swap1\n  dup4\n  0xffffffffffffffffffffffffffffffffffffffff\n  and\n  mul\n  or\n  swap1\n  sstore\n  pop\n    /* \"Campaign.sol\":1163:1170  minimum */\n  dup2\n    /* \"Campaign.sol\":1141:1160  minimumContribution */\n  0x03\n    /* \"Campaign.sol\":1141:1170  minimumContribution = minimum */\n  dup2\n  swap1\n  sstore\n  pop\n    /* \"Campaign.sol\":1061:1177  constructor(uint minimum, address creator) {... */\n  pop\n  pop\n    /* \"Campaign.sol\":507:2532  contract Campaign {... */\n  jump(tag_6)\n    /* \"#utility.yul\":7:150   */\ntag_8:\n    /* \"#utility.yul\":64:69   */\n  0x00\n    /* \"#utility.yul\":95:101   */\n  dup2\n    /* \"#utility.yul\":89:102   */\n  mload\n    /* \"#utility.yul\":80:102   */\n  swap1\n  pop\n    /* \"#utility.yul\":111:144   */\n  tag_10\n    /* \"#utility.yul\":138:143   */\n  dup2\n    /* \"#utility.yul\":111:144   */\n  tag_11\n  jump\t// in\ntag_10:\n    /* \"#utility.yul\":7:150   */\n  swap3\n  swap2\n  pop\n  pop\n  jump\t// out\n    /* \"#utility.yul\":156:299   */\ntag_12:\n    /* \"#utility.yul\":213:218   */\n  0x00\n    /* \"#utility.yul\":244:250   */\n  dup2\n    /* \"#utility.yul\":238:251   */\n  mload\n    /* \"#utility.yul\":229:251   */\n  swap1\n  pop\n    /* \"#utility.yul\":260:293   */\n  tag_14\n    /* \"#utility.yul\":287:292   */\n  dup2\n    /* \"#utility.yul\":260:293   */\n  tag_15\n  jump\t// in\ntag_14:\n    /* \"#utility.yul\":156:299   */\n  swap3\n  swap2\n  pop\n  pop\n  jump\t// out\n    /* \"#utility.yul\":305:812   */\ntag_3:\n    /* \"#utility.yul\":384:390   */\n  0x00\n    /* \"#utility.yul\":392:398   */\n  dup1\n    /* \"#utility.yul\":441:443   */\n  0x40\n    /* \"#utility.yul\":429:438   */\n  dup4\n    /* \"#utility.yul\":420:427   */\n  dup6\n    /* \"#utility.yul\":416:439   */\n  sub\n    /* \"#utility.yul\":412:444   */\n  slt\n    /* \"#utility.yul\":409:528   */\n  iszero\n  tag_17\n  jumpi\n    /* \"#utility.yul\":447:526   */\n  tag_18\n  tag_19\n  jump\t// in\ntag_18:\n    /* \"#utility.yul\":409:528   */\ntag_17:\n    /* \"#utility.yul\":567:568   */\n  0x00\n    /* \"#utility.yul\":592:656   */\n  tag_20\n    /* \"#utility.yul\":648:655   */\n  dup6\n    /* \"#utility.yul\":639:645   */\n  dup3\n    /* \"#utility.yul\":628:637   */\n  dup7\n    /* \"#utility.yul\":624:646   */\n  add\n    /* \"#utility.yul\":592:656   */\n  tag_12\n  jump\t// in\ntag_20:\n    /* \"#utility.yul\":582:656   */\n  swap3\n  pop\n    /* \"#utility.yul\":538:666   */\n  pop\n    /* \"#utility.yul\":705:707   */\n  0x20\n    /* \"#utility.yul\":731:795   */\n  tag_21\n    /* \"#utility.yul\":787:794   */\n  dup6\n    /* \"#utility.yul\":778:784   */\n  dup3\n    /* \"#utility.yul\":767:776   */\n  dup7\n    /* \"#utility.yul\":763:785   */\n  add\n    /* \"#utility.yul\":731:795   */\n  tag_8\n  jump\t// in\ntag_21:\n    /* \"#utility.yul\":721:795   */\n  swap2\n  pop\n    /* \"#utility.yul\":676:805   */\n  pop\n    /* \"#utility.yul\":305:812   */\n  swap3\n  pop\n  swap3\n  swap1\n  pop\n  jump\t// out\n    /* \"#utility.yul\":899:995   */\ntag_24:\n    /* \"#utility.yul\":936:943   */\n  0x00\n    /* \"#utility.yul\":965:989   */\n  tag_26\n    /* \"#utility.yul\":983:988   */\n  dup3\n    /* \"#utility.yul\":965:989   */\n  tag_27\n  jump\t// in\ntag_26:\n    /* \"#utility.yul\":954:989   */\n  swap1\n  pop\n    /* \"#utility.yul\":899:995   */\n  swap2\n  swap1\n  pop\n  jump\t// out\n    /* \"#utility.yul\":1001:1127   */\ntag_27:\n    /* \"#utility.yul\":1038:1045   */\n  0x00\n    /* \"#utility.yul\":1078:1120   */\n  0xffffffffffffffffffffffffffffffffffffffff\n    /* \"#utility.yul\":1071:1076   */\n  dup3\n    /* \"#utility.yul\":1067:1121   */\n  and\n    /* \"#utility.yul\":1056:1121   */\n  swap1\n  pop\n    /* \"#utility.yul\":1001:1127   */\n  swap2\n  swap1\n  pop\n  jump\t// out\n    /* \"#utility.yul\":1133:1210   */\ntag_29:\n    /* \"#utility.yul\":1170:1177   */\n  0x00\n    /* \"#utility.yul\":1199:1204   */\n  dup2\n    /* \"#utility.yul\":1188:1204   */\n  swap1\n  pop\n    /* \"#utility.yul\":1133:1210   */\n  swap2\n  swap1\n  pop\n  jump\t// out\n    /* \"#utility.yul\":1339:1456   */\ntag_19:\n    /* \"#utility.yul\":1448:1449   */\n  0x00\n    /* \"#utility.yul\":1445:1446   */\n  dup1\n    /* \"#utility.yul\":1438:1450   */\n  revert\n    /* \"#utility.yul\":1462:1584   */\ntag_11:\n    /* \"#utility.yul\":1535:1559   */\n  tag_35\n    /* \"#utility.yul\":1553:1558   */\n  dup2\n    /* \"#utility.yul\":1535:1559   */\n  tag_24\n  jump\t// in\ntag_35:\n    /* \"#utility.yul\":1528:1533   */\n  dup2\n    /* \"#utility.yul\":1525:1560   */\n  eq\n    /* \"#utility.yul\":1515:1578   */\n  tag_36\n  jumpi\n    /* \"#utility.yul\":1574:1575   */\n  0x00\n    /* \"#utility.yul\":1571:1572   */\n  dup1\n    /* \"#utility.yul\":1564:1576   */\n  revert\n    /* \"#utility.yul\":1515:1578   */\ntag_36:\n    /* \"#utility.yul\":1462:1584   */\n  pop\n  jump\t// out\n    /* \"#utility.yul\":1590:1712   */\ntag_15:\n    /* \"#utility.yul\":1663:1687   */\n  tag_38\n    /* \"#utility.yul\":1681:1686   */\n  dup2\n    /* \"#utility.yul\":1663:1687   */\n  tag_29\n  jump\t// in\ntag_38:\n    /* \"#utility.yul\":1656:1661   */\n  dup2\n    /* \"#utility.yul\":1653:1688   */\n  eq\n    /* \"#utility.yul\":1643:1706   */\n  tag_39\n  jumpi\n    /* \"#utility.yul\":1702:1703   */\n  0x00\n    /* \"#utility.yul\":1699:1700   */\n  dup1\n    /* \"#utility.yul\":1692:1704   */\n  revert\n    /* \"#utility.yul\":1643:1706   */\ntag_39:\n    /* \"#utility.yul\":1590:1712   */\n  pop\n  jump\t// out\n    /* \"Campaign.sol\":507:2532  contract Campaign {... */\ntag_6:\n  dataSize(sub_0)\n  dup1\n  dataOffset(sub_0)\n  0x00\n  codecopy\n  0x00\n  return\nstop\n\nsub_0: assembly {\n        /* \"Campaign.sol\":507:2532  contract Campaign {... */\n      mstore(0x40, 0x80)\n      jumpi(tag_1, lt(calldatasize, 0x04))\n      shr(0xe0, calldataload(0x00))\n      dup1\n      0x82fde093\n      gt\n      tag_11\n      jumpi\n      dup1\n      0x82fde093\n      eq\n      tag_6\n      jumpi\n      dup1\n      0x8a9cfd55\n      eq\n      tag_7\n      jumpi\n      dup1\n      0x937e09b1\n      eq\n      tag_8\n      jumpi\n      dup1\n      0xd7bb99ba\n      eq\n      tag_9\n      jumpi\n      dup1\n      0xd7d1bbdb\n      eq\n      tag_10\n      jumpi\n      jump(tag_1)\n    tag_11:\n      dup1\n      0x03441006\n      eq\n      tag_2\n      jumpi\n      dup1\n      0x0a144391\n      eq\n      tag_3\n      jumpi\n      dup1\n      0x481c6a75\n      eq\n      tag_4\n      jumpi\n      dup1\n      0x81d12c58\n      eq\n      tag_5\n      jumpi\n    tag_1:\n      0x00\n      dup1\n      revert\n        /* \"Campaign.sol\":2143:2530  function finalizeRequest(uint id) public payable restricted {... */\n    tag_2:\n      tag_12\n      0x04\n      dup1\n      calldatasize\n      sub\n      dup2\n      add\n      swap1\n      tag_13\n      swap2\n      swap1\n      tag_14\n      jump\t// in\n    tag_13:\n      tag_15\n      jump\t// in\n    tag_12:\n      stop\n        /* \"Campaign.sol\":887:928  mapping(address => bool) public approvers */\n    tag_3:\n      callvalue\n      dup1\n      iszero\n      tag_16\n      jumpi\n      0x00\n      dup1\n      revert\n    tag_16:\n      pop\n      tag_17\n      0x04\n      dup1\n      calldatasize\n      sub\n      dup2\n      add\n      swap1\n      tag_18\n      swap2\n      swap1\n      tag_19\n      jump\t// in\n    tag_18:\n      tag_20\n      jump\t// in\n    tag_17:\n      mload(0x40)\n      tag_21\n      swap2\n      swap1\n      tag_22\n      jump\t// in\n    tag_21:\n      mload(0x40)\n      dup1\n      swap2\n      sub\n      swap1\n      return\n        /* \"Campaign.sol\":822:844  address public manager */\n    tag_4:\n      callvalue\n      dup1\n      iszero\n      tag_23\n      jumpi\n      0x00\n      dup1\n      revert\n    tag_23:\n      pop\n      tag_24\n      tag_25\n      jump\t// in\n    tag_24:\n      mload(0x40)\n      tag_26\n      swap2\n      swap1\n      tag_27\n      jump\t// in\n    tag_26:\n      mload(0x40)\n      dup1\n      swap2\n      sub\n      swap1\n      return\n        /* \"Campaign.sol\":776:816  mapping(uint => Request) public requests */\n    tag_5:\n      callvalue\n      dup1\n      iszero\n      tag_28\n      jumpi\n      0x00\n      dup1\n      revert\n    tag_28:\n      pop\n      tag_29\n      0x04\n      dup1\n      calldatasize\n      sub\n      dup2\n      add\n      swap1\n      tag_30\n      swap2\n      swap1\n      tag_14\n      jump\t// in\n    tag_30:\n      tag_31\n      jump\t// in\n    tag_29:\n      mload(0x40)\n      tag_32\n      swap7\n      swap6\n      swap5\n      swap4\n      swap3\n      swap2\n      swap1\n      tag_33\n      jump\t// in\n    tag_32:\n      mload(0x40)\n      dup1\n      swap2\n      sub\n      swap1\n      return\n        /* \"Campaign.sol\":934:960  uint public approversCount */\n    tag_6:\n      callvalue\n      dup1\n      iszero\n      tag_34\n      jumpi\n      0x00\n      dup1\n      revert\n    tag_34:\n      pop\n      tag_35\n      tag_36\n      jump\t// in\n    tag_35:\n      mload(0x40)\n      tag_37\n      swap2\n      swap1\n      tag_38\n      jump\t// in\n    tag_37:\n      mload(0x40)\n      dup1\n      swap2\n      sub\n      swap1\n      return\n        /* \"Campaign.sol\":1385:1797  function createRequest(string calldata description, uint value, address recipient) public payable restricted {... */\n    tag_7:\n      tag_39\n      0x04\n      dup1\n      calldatasize\n      sub\n      dup2\n      add\n      swap1\n      tag_40\n      swap2\n      swap1\n      tag_41\n      jump\t// in\n    tag_40:\n      tag_42\n      jump\t// in\n    tag_39:\n      stop\n        /* \"Campaign.sol\":850:881  uint public minimumContribution */\n    tag_8:\n      callvalue\n      dup1\n      iszero\n      tag_43\n      jumpi\n      0x00\n      dup1\n      revert\n    tag_43:\n      pop\n      tag_44\n      tag_45\n      jump\t// in\n    tag_44:\n      mload(0x40)\n      tag_46\n      swap2\n      swap1\n      tag_38\n      jump\t// in\n    tag_46:\n      mload(0x40)\n      dup1\n      swap2\n      sub\n      swap1\n      return\n        /* \"Campaign.sol\":1187:1375  function contribute() public payable {... */\n    tag_9:\n      tag_47\n      tag_48\n      jump\t// in\n    tag_47:\n      stop\n        /* \"Campaign.sol\":1807:2133  function approveRequest(uint id) public payable {... */\n    tag_10:\n      tag_49\n      0x04\n      dup1\n      calldatasize\n      sub\n      dup2\n      add\n      swap1\n      tag_50\n      swap2\n      swap1\n      tag_14\n      jump\t// in\n    tag_50:\n      tag_51\n      jump\t// in\n    tag_49:\n      stop\n        /* \"Campaign.sol\":2143:2530  function finalizeRequest(uint id) public payable restricted {... */\n    tag_15:\n        /* \"Campaign.sol\":1025:1032  manager */\n      0x02\n      0x00\n      swap1\n      sload\n      swap1\n      0x0100\n      exp\n      swap1\n      div\n      0xffffffffffffffffffffffffffffffffffffffff\n      and\n        /* \"Campaign.sol\":1011:1032  msg.sender == manager */\n      0xffffffffffffffffffffffffffffffffffffffff\n      and\n        /* \"Campaign.sol\":1011:1021  msg.sender */\n      caller\n        /* \"Campaign.sol\":1011:1032  msg.sender == manager */\n      0xffffffffffffffffffffffffffffffffffffffff\n      and\n      eq\n        /* \"Campaign.sol\":1003:1033  require(msg.sender == manager) */\n      tag_53\n      jumpi\n      0x00\n      dup1\n      revert\n    tag_53:\n        /* \"Campaign.sol\":2213:2232  Request storage req */\n      0x00\n        /* \"Campaign.sol\":2235:2243  requests */\n      0x01\n        /* \"Campaign.sol\":2235:2247  requests[id] */\n      0x00\n        /* \"Campaign.sol\":2244:2246  id */\n      dup4\n        /* \"Campaign.sol\":2235:2247  requests[id] */\n      dup2\n      mstore\n      0x20\n      add\n      swap1\n      dup2\n      mstore\n      0x20\n      add\n      0x00\n      keccak256\n        /* \"Campaign.sol\":2213:2247  Request storage req = requests[id] */\n      swap1\n      pop\n        /* \"Campaign.sol\":2299:2302  req */\n      dup1\n        /* \"Campaign.sol\":2299:2311  req.complete */\n      0x03\n      add\n      0x14\n      swap1\n      sload\n      swap1\n      0x0100\n      exp\n      swap1\n      div\n      0xff\n      and\n        /* \"Campaign.sol\":2298:2311  !req.complete */\n      iszero\n        /* \"Campaign.sol\":2290:2312  require(!req.complete) */\n      tag_55\n      jumpi\n      0x00\n      dup1\n      revert\n    tag_55:\n        /* \"Campaign.sol\":2404:2405  2 */\n      0x02\n        /* \"Campaign.sol\":2387:2401  approversCount */\n      sload(0x05)\n        /* \"Campaign.sol\":2387:2405  approversCount / 2 */\n      tag_56\n      swap2\n      swap1\n      tag_57\n      jump\t// in\n    tag_56:\n        /* \"Campaign.sol\":2366:2369  req */\n      dup2\n        /* \"Campaign.sol\":2366:2383  req.approvalCount */\n      0x04\n      add\n      sload\n        /* \"Campaign.sol\":2366:2407  req.approvalCount > (approversCount / 2 ) */\n      gt\n        /* \"Campaign.sol\":2358:2408  require(req.approvalCount > (approversCount / 2 )) */\n      tag_58\n      jumpi\n      0x00\n      dup1\n      revert\n    tag_58:\n        /* \"Campaign.sol\":2466:2470  true */\n      0x01\n        /* \"Campaign.sol\":2451:2454  req */\n      dup2\n        /* \"Campaign.sol\":2451:2463  req.complete */\n      0x03\n      add\n      0x14\n        /* \"Campaign.sol\":2451:2470  req.complete = true */\n      0x0100\n      exp\n      dup2\n      sload\n      dup2\n      0xff\n      mul\n      not\n      and\n      swap1\n      dup4\n      iszero\n      iszero\n      mul\n      or\n      swap1\n      sstore\n      pop\n        /* \"Campaign.sol\":2489:2492  req */\n      dup1\n        /* \"Campaign.sol\":2489:2502  req.recipient */\n      0x03\n      add\n      0x00\n      swap1\n      sload\n      swap1\n      0x0100\n      exp\n      swap1\n      div\n      0xffffffffffffffffffffffffffffffffffffffff\n      and\n        /* \"Campaign.sol\":2480:2512  payable (req.recipient).transfer */\n      0xffffffffffffffffffffffffffffffffffffffff\n      and\n        /* \"Campaign.sol\":2480:2523  payable (req.recipient).transfer(req.value) */\n      0x08fc\n        /* \"Campaign.sol\":2513:2516  req */\n      dup3\n        /* \"Campaign.sol\":2513:2522  req.value */\n      0x02\n      add\n      sload\n        /* \"Campaign.sol\":2480:2523  payable (req.recipient).transfer(req.value) */\n      swap1\n      dup2\n      iszero\n      mul\n      swap1\n      mload(0x40)\n      0x00\n      mload(0x40)\n      dup1\n      dup4\n      sub\n      dup2\n      dup6\n      dup9\n      dup9\n      call\n      swap4\n      pop\n      pop\n      pop\n      pop\n      iszero\n      dup1\n      iszero\n      tag_60\n      jumpi\n      returndatasize\n      0x00\n      dup1\n      returndatacopy\n      revert(0x00, returndatasize)\n    tag_60:\n      pop\n        /* \"Campaign.sol\":2203:2530  {... */\n      pop\n        /* \"Campaign.sol\":2143:2530  function finalizeRequest(uint id) public payable restricted {... */\n      pop\n      jump\t// out\n        /* \"Campaign.sol\":887:928  mapping(address => bool) public approvers */\n    tag_20:\n      mstore(0x20, 0x04)\n      dup1\n      0x00\n      mstore\n      keccak256(0x00, 0x40)\n      0x00\n      swap2\n      pop\n      sload\n      swap1\n      0x0100\n      exp\n      swap1\n      div\n      0xff\n      and\n      dup2\n      jump\t// out\n        /* \"Campaign.sol\":822:844  address public manager */\n    tag_25:\n      0x02\n      0x00\n      swap1\n      sload\n      swap1\n      0x0100\n      exp\n      swap1\n      div\n      0xffffffffffffffffffffffffffffffffffffffff\n      and\n      dup2\n      jump\t// out\n        /* \"Campaign.sol\":776:816  mapping(uint => Request) public requests */\n    tag_31:\n      mstore(0x20, 0x01)\n      dup1\n      0x00\n      mstore\n      keccak256(0x00, 0x40)\n      0x00\n      swap2\n      pop\n      swap1\n      pop\n      dup1\n      0x00\n      add\n      sload\n      swap1\n      dup1\n      0x01\n      add\n      dup1\n      sload\n      tag_61\n      swap1\n      tag_62\n      jump\t// in\n    tag_61:\n      dup1\n      0x1f\n      add\n      0x20\n      dup1\n      swap2\n      div\n      mul\n      0x20\n      add\n      mload(0x40)\n      swap1\n      dup2\n      add\n      0x40\n      mstore\n      dup1\n      swap3\n      swap2\n      swap1\n      dup2\n      dup2\n      mstore\n      0x20\n      add\n      dup3\n      dup1\n      sload\n      tag_63\n      swap1\n      tag_62\n      jump\t// in\n    tag_63:\n      dup1\n      iszero\n      tag_64\n      jumpi\n      dup1\n      0x1f\n      lt\n      tag_65\n      jumpi\n      0x0100\n      dup1\n      dup4\n      sload\n      div\n      mul\n      dup4\n      mstore\n      swap2\n      0x20\n      add\n      swap2\n      jump(tag_64)\n    tag_65:\n      dup3\n      add\n      swap2\n      swap1\n      0x00\n      mstore\n      keccak256(0x00, 0x20)\n      swap1\n    tag_66:\n      dup2\n      sload\n      dup2\n      mstore\n      swap1\n      0x01\n      add\n      swap1\n      0x20\n      add\n      dup1\n      dup4\n      gt\n      tag_66\n      jumpi\n      dup3\n      swap1\n      sub\n      0x1f\n      and\n      dup3\n      add\n      swap2\n    tag_64:\n      pop\n      pop\n      pop\n      pop\n      pop\n      swap1\n      dup1\n      0x02\n      add\n      sload\n      swap1\n      dup1\n      0x03\n      add\n      0x00\n      swap1\n      sload\n      swap1\n      0x0100\n      exp\n      swap1\n      div\n      0xffffffffffffffffffffffffffffffffffffffff\n      and\n      swap1\n      dup1\n      0x03\n      add\n      0x14\n      swap1\n      sload\n      swap1\n      0x0100\n      exp\n      swap1\n      div\n      0xff\n      and\n      swap1\n      dup1\n      0x04\n      add\n      sload\n      swap1\n      pop\n      dup7\n      jump\t// out\n        /* \"Campaign.sol\":934:960  uint public approversCount */\n    tag_36:\n      sload(0x05)\n      dup2\n      jump\t// out\n        /* \"Campaign.sol\":1385:1797  function createRequest(string calldata description, uint value, address recipient) public payable restricted {... */\n    tag_42:\n        /* \"Campaign.sol\":1025:1032  manager */\n      0x02\n      0x00\n      swap1\n      sload\n      swap1\n      0x0100\n      exp\n      swap1\n      div\n      0xffffffffffffffffffffffffffffffffffffffff\n      and\n        /* \"Campaign.sol\":1011:1032  msg.sender == manager */\n      0xffffffffffffffffffffffffffffffffffffffff\n      and\n        /* \"Campaign.sol\":1011:1021  msg.sender */\n      caller\n        /* \"Campaign.sol\":1011:1032  msg.sender == manager */\n      0xffffffffffffffffffffffffffffffffffffffff\n      and\n      eq\n        /* \"Campaign.sol\":1003:1033  require(msg.sender == manager) */\n      tag_68\n      jumpi\n      0x00\n      dup1\n      revert\n    tag_68:\n        /* \"Campaign.sol\":1504:1530  Request storage newRequest */\n      0x00\n        /* \"Campaign.sol\":1533:1541  requests */\n      0x01\n        /* \"Campaign.sol\":1533:1556  requests[numRequests++] */\n      0x00\n        /* \"Campaign.sol\":1542:1553  numRequests */\n      dup1\n      0x00\n        /* \"Campaign.sol\":1542:1555  numRequests++ */\n      dup2\n      sload\n      dup1\n      swap3\n      swap2\n      swap1\n      tag_70\n      swap1\n      tag_71\n      jump\t// in\n    tag_70:\n      swap2\n      swap1\n      pop\n      sstore\n        /* \"Campaign.sol\":1533:1556  requests[numRequests++] */\n      dup2\n      mstore\n      0x20\n      add\n      swap1\n      dup2\n      mstore\n      0x20\n      add\n      0x00\n      keccak256\n        /* \"Campaign.sol\":1504:1556  Request storage newRequest = requests[numRequests++] */\n      swap1\n      pop\n        /* \"Campaign.sol\":1582:1593  numRequests */\n      sload(0x00)\n        /* \"Campaign.sol\":1566:1576  newRequest */\n      dup2\n        /* \"Campaign.sol\":1566:1579  newRequest.id */\n      0x00\n      add\n        /* \"Campaign.sol\":1566:1593  newRequest.id = numRequests */\n      dup2\n      swap1\n      sstore\n      pop\n        /* \"Campaign.sol\":1628:1639  description */\n      dup5\n      dup5\n        /* \"Campaign.sol\":1603:1613  newRequest */\n      dup3\n        /* \"Campaign.sol\":1603:1625  newRequest.description */\n      0x01\n      add\n        /* \"Campaign.sol\":1603:1639  newRequest.description = description */\n      swap2\n      swap1\n      tag_72\n      swap3\n      swap2\n      swap1\n      tag_73\n      jump\t// in\n    tag_72:\n      pop\n        /* \"Campaign.sol\":1668:1673  value */\n      dup3\n        /* \"Campaign.sol\":1649:1659  newRequest */\n      dup2\n        /* \"Campaign.sol\":1649:1665  newRequest.value */\n      0x02\n      add\n        /* \"Campaign.sol\":1649:1673  newRequest.value = value */\n      dup2\n      swap1\n      sstore\n      pop\n        /* \"Campaign.sol\":1706:1715  recipient */\n      dup2\n        /* \"Campaign.sol\":1683:1693  newRequest */\n      dup2\n        /* \"Campaign.sol\":1683:1703  newRequest.recipient */\n      0x03\n      add\n      0x00\n        /* \"Campaign.sol\":1683:1715  newRequest.recipient = recipient */\n      0x0100\n      exp\n      dup2\n      sload\n      dup2\n      0xffffffffffffffffffffffffffffffffffffffff\n      mul\n      not\n      and\n      swap1\n      dup4\n      0xffffffffffffffffffffffffffffffffffffffff\n      and\n      mul\n      or\n      swap1\n      sstore\n      pop\n        /* \"Campaign.sol\":1747:1752  false */\n      0x00\n        /* \"Campaign.sol\":1725:1735  newRequest */\n      dup2\n        /* \"Campaign.sol\":1725:1744  newRequest.complete */\n      0x03\n      add\n      0x14\n        /* \"Campaign.sol\":1725:1752  newRequest.complete = false */\n      0x0100\n      exp\n      dup2\n      sload\n      dup2\n      0xff\n      mul\n      not\n      and\n      swap1\n      dup4\n      iszero\n      iszero\n      mul\n      or\n      swap1\n      sstore\n      pop\n        /* \"Campaign.sol\":1789:1790  0 */\n      0x00\n        /* \"Campaign.sol\":1762:1772  newRequest */\n      dup2\n        /* \"Campaign.sol\":1762:1786  newRequest.approvalCount */\n      0x04\n      add\n        /* \"Campaign.sol\":1762:1790  newRequest.approvalCount = 0 */\n      dup2\n      swap1\n      sstore\n      pop\n        /* \"Campaign.sol\":1494:1797  {... */\n      pop\n        /* \"Campaign.sol\":1385:1797  function createRequest(string calldata description, uint value, address recipient) public payable restricted {... */\n      pop\n      pop\n      pop\n      pop\n      jump\t// out\n        /* \"Campaign.sol\":850:881  uint public minimumContribution */\n    tag_45:\n      sload(0x03)\n      dup2\n      jump\t// out\n        /* \"Campaign.sol\":1187:1375  function contribute() public payable {... */\n    tag_48:\n        /* \"Campaign.sol\":1254:1273  minimumContribution */\n      sload(0x03)\n        /* \"Campaign.sol\":1242:1251  msg.value */\n      callvalue\n        /* \"Campaign.sol\":1242:1273  msg.value > minimumContribution */\n      gt\n        /* \"Campaign.sol\":1234:1304  require(msg.value > minimumContribution, \"Not enough ether provided.\") */\n      tag_75\n      jumpi\n      mload(0x40)\n      0x08c379a000000000000000000000000000000000000000000000000000000000\n      dup2\n      mstore\n      0x04\n      add\n      tag_76\n      swap1\n      tag_77\n      jump\t// in\n    tag_76:\n      mload(0x40)\n      dup1\n      swap2\n      sub\n      swap1\n      revert\n    tag_75:\n        /* \"Campaign.sol\":1338:1342  true */\n      0x01\n        /* \"Campaign.sol\":1314:1323  approvers */\n      0x04\n        /* \"Campaign.sol\":1314:1335  approvers[msg.sender] */\n      0x00\n        /* \"Campaign.sol\":1324:1334  msg.sender */\n      caller\n        /* \"Campaign.sol\":1314:1335  approvers[msg.sender] */\n      0xffffffffffffffffffffffffffffffffffffffff\n      and\n      0xffffffffffffffffffffffffffffffffffffffff\n      and\n      dup2\n      mstore\n      0x20\n      add\n      swap1\n      dup2\n      mstore\n      0x20\n      add\n      0x00\n      keccak256\n      0x00\n        /* \"Campaign.sol\":1314:1342  approvers[msg.sender] = true */\n      0x0100\n      exp\n      dup2\n      sload\n      dup2\n      0xff\n      mul\n      not\n      and\n      swap1\n      dup4\n      iszero\n      iszero\n      mul\n      or\n      swap1\n      sstore\n      pop\n        /* \"Campaign.sol\":1352:1366  approversCount */\n      0x05\n      0x00\n        /* \"Campaign.sol\":1352:1368  approversCount++ */\n      dup2\n      sload\n      dup1\n      swap3\n      swap2\n      swap1\n      tag_78\n      swap1\n      tag_71\n      jump\t// in\n    tag_78:\n      swap2\n      swap1\n      pop\n      sstore\n      pop\n        /* \"Campaign.sol\":1187:1375  function contribute() public payable {... */\n      jump\t// out\n        /* \"Campaign.sol\":1807:2133  function approveRequest(uint id) public payable {... */\n    tag_51:\n        /* \"Campaign.sol\":1865:1884  Request storage req */\n      0x00\n        /* \"Campaign.sol\":1887:1895  requests */\n      0x01\n        /* \"Campaign.sol\":1887:1899  requests[id] */\n      0x00\n        /* \"Campaign.sol\":1896:1898  id */\n      dup4\n        /* \"Campaign.sol\":1887:1899  requests[id] */\n      dup2\n      mstore\n      0x20\n      add\n      swap1\n      dup2\n      mstore\n      0x20\n      add\n      0x00\n      keccak256\n        /* \"Campaign.sol\":1865:1899  Request storage req = requests[id] */\n      swap1\n      pop\n        /* \"Campaign.sol\":1951:1960  approvers */\n      0x04\n        /* \"Campaign.sol\":1951:1972  approvers[msg.sender] */\n      0x00\n        /* \"Campaign.sol\":1961:1971  msg.sender */\n      caller\n        /* \"Campaign.sol\":1951:1972  approvers[msg.sender] */\n      0xffffffffffffffffffffffffffffffffffffffff\n      and\n      0xffffffffffffffffffffffffffffffffffffffff\n      and\n      dup2\n      mstore\n      0x20\n      add\n      swap1\n      dup2\n      mstore\n      0x20\n      add\n      0x00\n      keccak256\n      0x00\n      swap1\n      sload\n      swap1\n      0x0100\n      exp\n      swap1\n      div\n      0xff\n      and\n        /* \"Campaign.sol\":1943:1973  require(approvers[msg.sender]) */\n      tag_80\n      jumpi\n      0x00\n      dup1\n      revert\n    tag_80:\n        /* \"Campaign.sol\":2029:2032  req */\n      dup1\n        /* \"Campaign.sol\":2029:2042  req.approvals */\n      0x05\n      add\n        /* \"Campaign.sol\":2029:2054  req.approvals[msg.sender] */\n      0x00\n        /* \"Campaign.sol\":2043:2053  msg.sender */\n      caller\n        /* \"Campaign.sol\":2029:2054  req.approvals[msg.sender] */\n      0xffffffffffffffffffffffffffffffffffffffff\n      and\n      0xffffffffffffffffffffffffffffffffffffffff\n      and\n      dup2\n      mstore\n      0x20\n      add\n      swap1\n      dup2\n      mstore\n      0x20\n      add\n      0x00\n      keccak256\n      0x00\n      swap1\n      sload\n      swap1\n      0x0100\n      exp\n      swap1\n      div\n      0xff\n      and\n        /* \"Campaign.sol\":2028:2054  !req.approvals[msg.sender] */\n      iszero\n        /* \"Campaign.sol\":2019:2055  require (!req.approvals[msg.sender]) */\n      tag_81\n      jumpi\n      0x00\n      dup1\n      revert\n    tag_81:\n        /* \"Campaign.sol\":2093:2097  true */\n      0x01\n        /* \"Campaign.sol\":2065:2068  req */\n      dup2\n        /* \"Campaign.sol\":2065:2078  req.approvals */\n      0x05\n      add\n        /* \"Campaign.sol\":2065:2090  req.approvals[msg.sender] */\n      0x00\n        /* \"Campaign.sol\":2079:2089  msg.sender */\n      caller\n        /* \"Campaign.sol\":2065:2090  req.approvals[msg.sender] */\n      0xffffffffffffffffffffffffffffffffffffffff\n      and\n      0xffffffffffffffffffffffffffffffffffffffff\n      and\n      dup2\n      mstore\n      0x20\n      add\n      swap1\n      dup2\n      mstore\n      0x20\n      add\n      0x00\n      keccak256\n      0x00\n        /* \"Campaign.sol\":2065:2097  req.approvals[msg.sender] = true */\n      0x0100\n      exp\n      dup2\n      sload\n      dup2\n      0xff\n      mul\n      not\n      and\n      swap1\n      dup4\n      iszero\n      iszero\n      mul\n      or\n      swap1\n      sstore\n      pop\n        /* \"Campaign.sol\":2107:2110  req */\n      dup1\n        /* \"Campaign.sol\":2107:2124  req.approvalCount */\n      0x04\n      add\n      0x00\n        /* \"Campaign.sol\":2107:2126  req.approvalCount++ */\n      dup2\n      sload\n      dup1\n      swap3\n      swap2\n      swap1\n      tag_82\n      swap1\n      tag_71\n      jump\t// in\n    tag_82:\n      swap2\n      swap1\n      pop\n      sstore\n      pop\n        /* \"Campaign.sol\":1855:2133  {... */\n      pop\n        /* \"Campaign.sol\":1807:2133  function approveRequest(uint id) public payable {... */\n      pop\n      jump\t// out\n    tag_73:\n      dup3\n      dup1\n      sload\n      tag_83\n      swap1\n      tag_62\n      jump\t// in\n    tag_83:\n      swap1\n      0x00\n      mstore\n      keccak256(0x00, 0x20)\n      swap1\n      0x1f\n      add\n      0x20\n      swap1\n      div\n      dup2\n      add\n      swap3\n      dup3\n      tag_85\n      jumpi\n      0x00\n      dup6\n      sstore\n      jump(tag_84)\n    tag_85:\n      dup3\n      0x1f\n      lt\n      tag_86\n      jumpi\n      dup1\n      calldataload\n      not(0xff)\n      and\n      dup4\n      dup1\n      add\n      or\n      dup6\n      sstore\n      jump(tag_84)\n    tag_86:\n      dup3\n      dup1\n      add\n      0x01\n      add\n      dup6\n      sstore\n      dup3\n      iszero\n      tag_84\n      jumpi\n      swap2\n      dup3\n      add\n    tag_87:\n      dup3\n      dup2\n      gt\n      iszero\n      tag_88\n      jumpi\n      dup3\n      calldataload\n      dup3\n      sstore\n      swap2\n      0x20\n      add\n      swap2\n      swap1\n      0x01\n      add\n      swap1\n      jump(tag_87)\n    tag_88:\n    tag_84:\n      pop\n      swap1\n      pop\n      tag_89\n      swap2\n      swap1\n      tag_90\n      jump\t// in\n    tag_89:\n      pop\n      swap1\n      jump\t// out\n    tag_90:\n    tag_91:\n      dup1\n      dup3\n      gt\n      iszero\n      tag_92\n      jumpi\n      0x00\n      dup2\n      0x00\n      swap1\n      sstore\n      pop\n      0x01\n      add\n      jump(tag_91)\n    tag_92:\n      pop\n      swap1\n      jump\t// out\n        /* \"#utility.yul\":7:146   */\n    tag_94:\n        /* \"#utility.yul\":53:58   */\n      0x00\n        /* \"#utility.yul\":91:97   */\n      dup2\n        /* \"#utility.yul\":78:98   */\n      calldataload\n        /* \"#utility.yul\":69:98   */\n      swap1\n      pop\n        /* \"#utility.yul\":107:140   */\n      tag_96\n        /* \"#utility.yul\":134:139   */\n      dup2\n        /* \"#utility.yul\":107:140   */\n      tag_97\n      jump\t// in\n    tag_96:\n        /* \"#utility.yul\":7:146   */\n      swap3\n      swap2\n      pop\n      pop\n      jump\t// out\n        /* \"#utility.yul\":166:719   */\n    tag_98:\n        /* \"#utility.yul\":224:232   */\n      0x00\n        /* \"#utility.yul\":234:240   */\n      dup1\n        /* \"#utility.yul\":284:287   */\n      dup4\n        /* \"#utility.yul\":277:281   */\n      0x1f\n        /* \"#utility.yul\":269:275   */\n      dup5\n        /* \"#utility.yul\":265:282   */\n      add\n        /* \"#utility.yul\":261:288   */\n      slt\n        /* \"#utility.yul\":251:373   */\n      tag_100\n      jumpi\n        /* \"#utility.yul\":292:371   */\n      tag_101\n      tag_102\n      jump\t// in\n    tag_101:\n        /* \"#utility.yul\":251:373   */\n    tag_100:\n        /* \"#utility.yul\":405:411   */\n      dup3\n        /* \"#utility.yul\":392:412   */\n      calldataload\n        /* \"#utility.yul\":382:412   */\n      swap1\n      pop\n        /* \"#utility.yul\":435:453   */\n      0xffffffffffffffff\n        /* \"#utility.yul\":427:433   */\n      dup2\n        /* \"#utility.yul\":424:454   */\n      gt\n        /* \"#utility.yul\":421:538   */\n      iszero\n      tag_103\n      jumpi\n        /* \"#utility.yul\":457:536   */\n      tag_104\n      tag_105\n      jump\t// in\n    tag_104:\n        /* \"#utility.yul\":421:538   */\n    tag_103:\n        /* \"#utility.yul\":571:575   */\n      0x20\n        /* \"#utility.yul\":563:569   */\n      dup4\n        /* \"#utility.yul\":559:576   */\n      add\n        /* \"#utility.yul\":547:576   */\n      swap2\n      pop\n        /* \"#utility.yul\":625:628   */\n      dup4\n        /* \"#utility.yul\":617:621   */\n      0x01\n        /* \"#utility.yul\":609:615   */\n      dup3\n        /* \"#utility.yul\":605:622   */\n      mul\n        /* \"#utility.yul\":595:603   */\n      dup4\n        /* \"#utility.yul\":591:623   */\n      add\n        /* \"#utility.yul\":588:629   */\n      gt\n        /* \"#utility.yul\":585:713   */\n      iszero\n      tag_106\n      jumpi\n        /* \"#utility.yul\":632:711   */\n      tag_107\n      tag_108\n      jump\t// in\n    tag_107:\n        /* \"#utility.yul\":585:713   */\n    tag_106:\n        /* \"#utility.yul\":166:719   */\n      swap3\n      pop\n      swap3\n      swap1\n      pop\n      jump\t// out\n        /* \"#utility.yul\":725:864   */\n    tag_109:\n        /* \"#utility.yul\":771:776   */\n      0x00\n        /* \"#utility.yul\":809:815   */\n      dup2\n        /* \"#utility.yul\":796:816   */\n      calldataload\n        /* \"#utility.yul\":787:816   */\n      swap1\n      pop\n        /* \"#utility.yul\":825:858   */\n      tag_111\n        /* \"#utility.yul\":852:857   */\n      dup2\n        /* \"#utility.yul\":825:858   */\n      tag_112\n      jump\t// in\n    tag_111:\n        /* \"#utility.yul\":725:864   */\n      swap3\n      swap2\n      pop\n      pop\n      jump\t// out\n        /* \"#utility.yul\":870:1199   */\n    tag_19:\n        /* \"#utility.yul\":929:935   */\n      0x00\n        /* \"#utility.yul\":978:980   */\n      0x20\n        /* \"#utility.yul\":966:975   */\n      dup3\n        /* \"#utility.yul\":957:964   */\n      dup5\n        /* \"#utility.yul\":953:976   */\n      sub\n        /* \"#utility.yul\":949:981   */\n      slt\n        /* \"#utility.yul\":946:1065   */\n      iszero\n      tag_114\n      jumpi\n        /* \"#utility.yul\":984:1063   */\n      tag_115\n      tag_116\n      jump\t// in\n    tag_115:\n        /* \"#utility.yul\":946:1065   */\n    tag_114:\n        /* \"#utility.yul\":1104:1105   */\n      0x00\n        /* \"#utility.yul\":1129:1182   */\n      tag_117\n        /* \"#utility.yul\":1174:1181   */\n      dup5\n        /* \"#utility.yul\":1165:1171   */\n      dup3\n        /* \"#utility.yul\":1154:1163   */\n      dup6\n        /* \"#utility.yul\":1150:1172   */\n      add\n        /* \"#utility.yul\":1129:1182   */\n      tag_94\n      jump\t// in\n    tag_117:\n        /* \"#utility.yul\":1119:1182   */\n      swap2\n      pop\n        /* \"#utility.yul\":1075:1192   */\n      pop\n        /* \"#utility.yul\":870:1199   */\n      swap3\n      swap2\n      pop\n      pop\n      jump\t// out\n        /* \"#utility.yul\":1205:2024   */\n    tag_41:\n        /* \"#utility.yul\":1294:1300   */\n      0x00\n        /* \"#utility.yul\":1302:1308   */\n      dup1\n        /* \"#utility.yul\":1310:1316   */\n      0x00\n        /* \"#utility.yul\":1318:1324   */\n      dup1\n        /* \"#utility.yul\":1367:1369   */\n      0x60\n        /* \"#utility.yul\":1355:1364   */\n      dup6\n        /* \"#utility.yul\":1346:1353   */\n      dup8\n        /* \"#utility.yul\":1342:1365   */\n      sub\n        /* \"#utility.yul\":1338:1370   */\n      slt\n        /* \"#utility.yul\":1335:1454   */\n      iszero\n      tag_119\n      jumpi\n        /* \"#utility.yul\":1373:1452   */\n      tag_120\n      tag_116\n      jump\t// in\n    tag_120:\n        /* \"#utility.yul\":1335:1454   */\n    tag_119:\n        /* \"#utility.yul\":1521:1522   */\n      0x00\n        /* \"#utility.yul\":1510:1519   */\n      dup6\n        /* \"#utility.yul\":1506:1523   */\n      add\n        /* \"#utility.yul\":1493:1524   */\n      calldataload\n        /* \"#utility.yul\":1551:1569   */\n      0xffffffffffffffff\n        /* \"#utility.yul\":1543:1549   */\n      dup2\n        /* \"#utility.yul\":1540:1570   */\n      gt\n        /* \"#utility.yul\":1537:1654   */\n      iszero\n      tag_121\n      jumpi\n        /* \"#utility.yul\":1573:1652   */\n      tag_122\n      tag_123\n      jump\t// in\n    tag_122:\n        /* \"#utility.yul\":1537:1654   */\n    tag_121:\n        /* \"#utility.yul\":1686:1751   */\n      tag_124\n        /* \"#utility.yul\":1743:1750   */\n      dup8\n        /* \"#utility.yul\":1734:1740   */\n      dup3\n        /* \"#utility.yul\":1723:1732   */\n      dup9\n        /* \"#utility.yul\":1719:1741   */\n      add\n        /* \"#utility.yul\":1686:1751   */\n      tag_98\n      jump\t// in\n    tag_124:\n        /* \"#utility.yul\":1668:1751   */\n      swap5\n      pop\n      swap5\n      pop\n        /* \"#utility.yul\":1464:1761   */\n      pop\n        /* \"#utility.yul\":1800:1802   */\n      0x20\n        /* \"#utility.yul\":1826:1879   */\n      tag_125\n        /* \"#utility.yul\":1871:1878   */\n      dup8\n        /* \"#utility.yul\":1862:1868   */\n      dup3\n        /* \"#utility.yul\":1851:1860   */\n      dup9\n        /* \"#utility.yul\":1847:1869   */\n      add\n        /* \"#utility.yul\":1826:1879   */\n      tag_109\n      jump\t// in\n    tag_125:\n        /* \"#utility.yul\":1816:1879   */\n      swap3\n      pop\n        /* \"#utility.yul\":1771:1889   */\n      pop\n        /* \"#utility.yul\":1928:1930   */\n      0x40\n        /* \"#utility.yul\":1954:2007   */\n      tag_126\n        /* \"#utility.yul\":1999:2006   */\n      dup8\n        /* \"#utility.yul\":1990:1996   */\n      dup3\n        /* \"#utility.yul\":1979:1988   */\n      dup9\n        /* \"#utility.yul\":1975:1997   */\n      add\n        /* \"#utility.yul\":1954:2007   */\n      tag_94\n      jump\t// in\n    tag_126:\n        /* \"#utility.yul\":1944:2007   */\n      swap2\n      pop\n        /* \"#utility.yul\":1899:2017   */\n      pop\n        /* \"#utility.yul\":1205:2024   */\n      swap3\n      swap6\n      swap2\n      swap5\n      pop\n      swap3\n      pop\n      jump\t// out\n        /* \"#utility.yul\":2030:2359   */\n    tag_14:\n        /* \"#utility.yul\":2089:2095   */\n      0x00\n        /* \"#utility.yul\":2138:2140   */\n      0x20\n        /* \"#utility.yul\":2126:2135   */\n      dup3\n        /* \"#utility.yul\":2117:2124   */\n      dup5\n        /* \"#utility.yul\":2113:2136   */\n      sub\n        /* \"#utility.yul\":2109:2141   */\n      slt\n        /* \"#utility.yul\":2106:2225   */\n      iszero\n      tag_128\n      jumpi\n        /* \"#utility.yul\":2144:2223   */\n      tag_129\n      tag_116\n      jump\t// in\n    tag_129:\n        /* \"#utility.yul\":2106:2225   */\n    tag_128:\n        /* \"#utility.yul\":2264:2265   */\n      0x00\n        /* \"#utility.yul\":2289:2342   */\n      tag_130\n        /* \"#utility.yul\":2334:2341   */\n      dup5\n        /* \"#utility.yul\":2325:2331   */\n      dup3\n        /* \"#utility.yul\":2314:2323   */\n      dup6\n        /* \"#utility.yul\":2310:2332   */\n      add\n        /* \"#utility.yul\":2289:2342   */\n      tag_109\n      jump\t// in\n    tag_130:\n        /* \"#utility.yul\":2279:2342   */\n      swap2\n      pop\n        /* \"#utility.yul\":2235:2352   */\n      pop\n        /* \"#utility.yul\":2030:2359   */\n      swap3\n      swap2\n      pop\n      pop\n      jump\t// out\n        /* \"#utility.yul\":2365:2483   */\n    tag_131:\n        /* \"#utility.yul\":2452:2476   */\n      tag_133\n        /* \"#utility.yul\":2470:2475   */\n      dup2\n        /* \"#utility.yul\":2452:2476   */\n      tag_134\n      jump\t// in\n    tag_133:\n        /* \"#utility.yul\":2447:2450   */\n      dup3\n        /* \"#utility.yul\":2440:2477   */\n      mstore\n        /* \"#utility.yul\":2365:2483   */\n      pop\n      pop\n      jump\t// out\n        /* \"#utility.yul\":2489:2598   */\n    tag_135:\n        /* \"#utility.yul\":2570:2591   */\n      tag_137\n        /* \"#utility.yul\":2585:2590   */\n      dup2\n        /* \"#utility.yul\":2570:2591   */\n      tag_138\n      jump\t// in\n    tag_137:\n        /* \"#utility.yul\":2565:2568   */\n      dup3\n        /* \"#utility.yul\":2558:2592   */\n      mstore\n        /* \"#utility.yul\":2489:2598   */\n      pop\n      pop\n      jump\t// out\n        /* \"#utility.yul\":2604:2968   */\n    tag_139:\n        /* \"#utility.yul\":2692:2695   */\n      0x00\n        /* \"#utility.yul\":2720:2759   */\n      tag_141\n        /* \"#utility.yul\":2753:2758   */\n      dup3\n        /* \"#utility.yul\":2720:2759   */\n      tag_142\n      jump\t// in\n    tag_141:\n        /* \"#utility.yul\":2775:2846   */\n      tag_143\n        /* \"#utility.yul\":2839:2845   */\n      dup2\n        /* \"#utility.yul\":2834:2837   */\n      dup6\n        /* \"#utility.yul\":2775:2846   */\n      tag_144\n      jump\t// in\n    tag_143:\n        /* \"#utility.yul\":2768:2846   */\n      swap4\n      pop\n        /* \"#utility.yul\":2855:2907   */\n      tag_145\n        /* \"#utility.yul\":2900:2906   */\n      dup2\n        /* \"#utility.yul\":2895:2898   */\n      dup6\n        /* \"#utility.yul\":2888:2892   */\n      0x20\n        /* \"#utility.yul\":2881:2886   */\n      dup7\n        /* \"#utility.yul\":2877:2893   */\n      add\n        /* \"#utility.yul\":2855:2907   */\n      tag_146\n      jump\t// in\n    tag_145:\n        /* \"#utility.yul\":2932:2961   */\n      tag_147\n        /* \"#utility.yul\":2954:2960   */\n      dup2\n        /* \"#utility.yul\":2932:2961   */\n      tag_148\n      jump\t// in\n    tag_147:\n        /* \"#utility.yul\":2927:2930   */\n      dup5\n        /* \"#utility.yul\":2923:2962   */\n      add\n        /* \"#utility.yul\":2916:2962   */\n      swap2\n      pop\n        /* \"#utility.yul\":2696:2968   */\n      pop\n        /* \"#utility.yul\":2604:2968   */\n      swap3\n      swap2\n      pop\n      pop\n      jump\t// out\n        /* \"#utility.yul\":2974:3340   */\n    tag_149:\n        /* \"#utility.yul\":3116:3119   */\n      0x00\n        /* \"#utility.yul\":3137:3204   */\n      tag_151\n        /* \"#utility.yul\":3201:3203   */\n      0x1a\n        /* \"#utility.yul\":3196:3199   */\n      dup4\n        /* \"#utility.yul\":3137:3204   */\n      tag_144\n      jump\t// in\n    tag_151:\n        /* \"#utility.yul\":3130:3204   */\n      swap2\n      pop\n        /* \"#utility.yul\":3213:3306   */\n      tag_152\n        /* \"#utility.yul\":3302:3305   */\n      dup3\n        /* \"#utility.yul\":3213:3306   */\n      tag_153\n      jump\t// in\n    tag_152:\n        /* \"#utility.yul\":3331:3333   */\n      0x20\n        /* \"#utility.yul\":3326:3329   */\n      dup3\n        /* \"#utility.yul\":3322:3334   */\n      add\n        /* \"#utility.yul\":3315:3334   */\n      swap1\n      pop\n        /* \"#utility.yul\":2974:3340   */\n      swap2\n      swap1\n      pop\n      jump\t// out\n        /* \"#utility.yul\":3346:3464   */\n    tag_154:\n        /* \"#utility.yul\":3433:3457   */\n      tag_156\n        /* \"#utility.yul\":3451:3456   */\n      dup2\n        /* \"#utility.yul\":3433:3457   */\n      tag_157\n      jump\t// in\n    tag_156:\n        /* \"#utility.yul\":3428:3431   */\n      dup3\n        /* \"#utility.yul\":3421:3458   */\n      mstore\n        /* \"#utility.yul\":3346:3464   */\n      pop\n      pop\n      jump\t// out\n        /* \"#utility.yul\":3470:3692   */\n    tag_27:\n        /* \"#utility.yul\":3563:3567   */\n      0x00\n        /* \"#utility.yul\":3601:3603   */\n      0x20\n        /* \"#utility.yul\":3590:3599   */\n      dup3\n        /* \"#utility.yul\":3586:3604   */\n      add\n        /* \"#utility.yul\":3578:3604   */\n      swap1\n      pop\n        /* \"#utility.yul\":3614:3685   */\n      tag_159\n        /* \"#utility.yul\":3682:3683   */\n      0x00\n        /* \"#utility.yul\":3671:3680   */\n      dup4\n        /* \"#utility.yul\":3667:3684   */\n      add\n        /* \"#utility.yul\":3658:3664   */\n      dup5\n        /* \"#utility.yul\":3614:3685   */\n      tag_131\n      jump\t// in\n    tag_159:\n        /* \"#utility.yul\":3470:3692   */\n      swap3\n      swap2\n      pop\n      pop\n      jump\t// out\n        /* \"#utility.yul\":3698:3908   */\n    tag_22:\n        /* \"#utility.yul\":3785:3789   */\n      0x00\n        /* \"#utility.yul\":3823:3825   */\n      0x20\n        /* \"#utility.yul\":3812:3821   */\n      dup3\n        /* \"#utility.yul\":3808:3826   */\n      add\n        /* \"#utility.yul\":3800:3826   */\n      swap1\n      pop\n        /* \"#utility.yul\":3836:3901   */\n      tag_161\n        /* \"#utility.yul\":3898:3899   */\n      0x00\n        /* \"#utility.yul\":3887:3896   */\n      dup4\n        /* \"#utility.yul\":3883:3900   */\n      add\n        /* \"#utility.yul\":3874:3880   */\n      dup5\n        /* \"#utility.yul\":3836:3901   */\n      tag_135\n      jump\t// in\n    tag_161:\n        /* \"#utility.yul\":3698:3908   */\n      swap3\n      swap2\n      pop\n      pop\n      jump\t// out\n        /* \"#utility.yul\":3914:4333   */\n    tag_77:\n        /* \"#utility.yul\":4080:4084   */\n      0x00\n        /* \"#utility.yul\":4118:4120   */\n      0x20\n        /* \"#utility.yul\":4107:4116   */\n      dup3\n        /* \"#utility.yul\":4103:4121   */\n      add\n        /* \"#utility.yul\":4095:4121   */\n      swap1\n      pop\n        /* \"#utility.yul\":4167:4176   */\n      dup2\n        /* \"#utility.yul\":4161:4165   */\n      dup2\n        /* \"#utility.yul\":4157:4177   */\n      sub\n        /* \"#utility.yul\":4153:4154   */\n      0x00\n        /* \"#utility.yul\":4142:4151   */\n      dup4\n        /* \"#utility.yul\":4138:4155   */\n      add\n        /* \"#utility.yul\":4131:4178   */\n      mstore\n        /* \"#utility.yul\":4195:4326   */\n      tag_163\n        /* \"#utility.yul\":4321:4325   */\n      dup2\n        /* \"#utility.yul\":4195:4326   */\n      tag_149\n      jump\t// in\n    tag_163:\n        /* \"#utility.yul\":4187:4326   */\n      swap1\n      pop\n        /* \"#utility.yul\":3914:4333   */\n      swap2\n      swap1\n      pop\n      jump\t// out\n        /* \"#utility.yul\":4339:4561   */\n    tag_38:\n        /* \"#utility.yul\":4432:4436   */\n      0x00\n        /* \"#utility.yul\":4470:4472   */\n      0x20\n        /* \"#utility.yul\":4459:4468   */\n      dup3\n        /* \"#utility.yul\":4455:4473   */\n      add\n        /* \"#utility.yul\":4447:4473   */\n      swap1\n      pop\n        /* \"#utility.yul\":4483:4554   */\n      tag_165\n        /* \"#utility.yul\":4551:4552   */\n      0x00\n        /* \"#utility.yul\":4540:4549   */\n      dup4\n        /* \"#utility.yul\":4536:4553   */\n      add\n        /* \"#utility.yul\":4527:4533   */\n      dup5\n        /* \"#utility.yul\":4483:4554   */\n      tag_154\n      jump\t// in\n    tag_165:\n        /* \"#utility.yul\":4339:4561   */\n      swap3\n      swap2\n      pop\n      pop\n      jump\t// out\n        /* \"#utility.yul\":4567:5421   */\n    tag_33:\n        /* \"#utility.yul\":4814:4818   */\n      0x00\n        /* \"#utility.yul\":4852:4855   */\n      0xc0\n        /* \"#utility.yul\":4841:4850   */\n      dup3\n        /* \"#utility.yul\":4837:4856   */\n      add\n        /* \"#utility.yul\":4829:4856   */\n      swap1\n      pop\n        /* \"#utility.yul\":4866:4937   */\n      tag_167\n        /* \"#utility.yul\":4934:4935   */\n      0x00\n        /* \"#utility.yul\":4923:4932   */\n      dup4\n        /* \"#utility.yul\":4919:4936   */\n      add\n        /* \"#utility.yul\":4910:4916   */\n      dup10\n        /* \"#utility.yul\":4866:4937   */\n      tag_154\n      jump\t// in\n    tag_167:\n        /* \"#utility.yul\":4984:4993   */\n      dup2\n        /* \"#utility.yul\":4978:4982   */\n      dup2\n        /* \"#utility.yul\":4974:4994   */\n      sub\n        /* \"#utility.yul\":4969:4971   */\n      0x20\n        /* \"#utility.yul\":4958:4967   */\n      dup4\n        /* \"#utility.yul\":4954:4972   */\n      add\n        /* \"#utility.yul\":4947:4995   */\n      mstore\n        /* \"#utility.yul\":5012:5090   */\n      tag_168\n        /* \"#utility.yul\":5085:5089   */\n      dup2\n        /* \"#utility.yul\":5076:5082   */\n      dup9\n        /* \"#utility.yul\":5012:5090   */\n      tag_139\n      jump\t// in\n    tag_168:\n        /* \"#utility.yul\":5004:5090   */\n      swap1\n      pop\n        /* \"#utility.yul\":5100:5172   */\n      tag_169\n        /* \"#utility.yul\":5168:5170   */\n      0x40\n        /* \"#utility.yul\":5157:5166   */\n      dup4\n        /* \"#utility.yul\":5153:5171   */\n      add\n        /* \"#utility.yul\":5144:5150   */\n      dup8\n        /* \"#utility.yul\":5100:5172   */\n      tag_154\n      jump\t// in\n    tag_169:\n        /* \"#utility.yul\":5182:5254   */\n      tag_170\n        /* \"#utility.yul\":5250:5252   */\n      0x60\n        /* \"#utility.yul\":5239:5248   */\n      dup4\n        /* \"#utility.yul\":5235:5253   */\n      add\n        /* \"#utility.yul\":5226:5232   */\n      dup7\n        /* \"#utility.yul\":5182:5254   */\n      tag_131\n      jump\t// in\n    tag_170:\n        /* \"#utility.yul\":5264:5331   */\n      tag_171\n        /* \"#utility.yul\":5326:5329   */\n      0x80\n        /* \"#utility.yul\":5315:5324   */\n      dup4\n        /* \"#utility.yul\":5311:5330   */\n      add\n        /* \"#utility.yul\":5302:5308   */\n      dup6\n        /* \"#utility.yul\":5264:5331   */\n      tag_135\n      jump\t// in\n    tag_171:\n        /* \"#utility.yul\":5341:5414   */\n      tag_172\n        /* \"#utility.yul\":5409:5412   */\n      0xa0\n        /* \"#utility.yul\":5398:5407   */\n      dup4\n        /* \"#utility.yul\":5394:5413   */\n      add\n        /* \"#utility.yul\":5385:5391   */\n      dup5\n        /* \"#utility.yul\":5341:5414   */\n      tag_154\n      jump\t// in\n    tag_172:\n        /* \"#utility.yul\":4567:5421   */\n      swap8\n      swap7\n      pop\n      pop\n      pop\n      pop\n      pop\n      pop\n      pop\n      jump\t// out\n        /* \"#utility.yul\":5508:5607   */\n    tag_142:\n        /* \"#utility.yul\":5560:5566   */\n      0x00\n        /* \"#utility.yul\":5594:5599   */\n      dup2\n        /* \"#utility.yul\":5588:5600   */\n      mload\n        /* \"#utility.yul\":5578:5600   */\n      swap1\n      pop\n        /* \"#utility.yul\":5508:5607   */\n      swap2\n      swap1\n      pop\n      jump\t// out\n        /* \"#utility.yul\":5613:5782   */\n    tag_144:\n        /* \"#utility.yul\":5697:5708   */\n      0x00\n        /* \"#utility.yul\":5731:5737   */\n      dup3\n        /* \"#utility.yul\":5726:5729   */\n      dup3\n        /* \"#utility.yul\":5719:5738   */\n      mstore\n        /* \"#utility.yul\":5771:5775   */\n      0x20\n        /* \"#utility.yul\":5766:5769   */\n      dup3\n        /* \"#utility.yul\":5762:5776   */\n      add\n        /* \"#utility.yul\":5747:5776   */\n      swap1\n      pop\n        /* \"#utility.yul\":5613:5782   */\n      swap3\n      swap2\n      pop\n      pop\n      jump\t// out\n        /* \"#utility.yul\":5788:5973   */\n    tag_57:\n        /* \"#utility.yul\":5828:5829   */\n      0x00\n        /* \"#utility.yul\":5845:5865   */\n      tag_178\n        /* \"#utility.yul\":5863:5864   */\n      dup3\n        /* \"#utility.yul\":5845:5865   */\n      tag_157\n      jump\t// in\n    tag_178:\n        /* \"#utility.yul\":5840:5865   */\n      swap2\n      pop\n        /* \"#utility.yul\":5879:5899   */\n      tag_179\n        /* \"#utility.yul\":5897:5898   */\n      dup4\n        /* \"#utility.yul\":5879:5899   */\n      tag_157\n      jump\t// in\n    tag_179:\n        /* \"#utility.yul\":5874:5899   */\n      swap3\n      pop\n        /* \"#utility.yul\":5918:5919   */\n      dup3\n        /* \"#utility.yul\":5908:5943   */\n      tag_180\n      jumpi\n        /* \"#utility.yul\":5923:5941   */\n      tag_181\n      tag_182\n      jump\t// in\n    tag_181:\n        /* \"#utility.yul\":5908:5943   */\n    tag_180:\n        /* \"#utility.yul\":5965:5966   */\n      dup3\n        /* \"#utility.yul\":5962:5963   */\n      dup3\n        /* \"#utility.yul\":5958:5967   */\n      div\n        /* \"#utility.yul\":5953:5967   */\n      swap1\n      pop\n        /* \"#utility.yul\":5788:5973   */\n      swap3\n      swap2\n      pop\n      pop\n      jump\t// out\n        /* \"#utility.yul\":5979:6075   */\n    tag_134:\n        /* \"#utility.yul\":6016:6023   */\n      0x00\n        /* \"#utility.yul\":6045:6069   */\n      tag_184\n        /* \"#utility.yul\":6063:6068   */\n      dup3\n        /* \"#utility.yul\":6045:6069   */\n      tag_185\n      jump\t// in\n    tag_184:\n        /* \"#utility.yul\":6034:6069   */\n      swap1\n      pop\n        /* \"#utility.yul\":5979:6075   */\n      swap2\n      swap1\n      pop\n      jump\t// out\n        /* \"#utility.yul\":6081:6171   */\n    tag_138:\n        /* \"#utility.yul\":6115:6122   */\n      0x00\n        /* \"#utility.yul\":6158:6163   */\n      dup2\n        /* \"#utility.yul\":6151:6164   */\n      iszero\n        /* \"#utility.yul\":6144:6165   */\n      iszero\n        /* \"#utility.yul\":6133:6165   */\n      swap1\n      pop\n        /* \"#utility.yul\":6081:6171   */\n      swap2\n      swap1\n      pop\n      jump\t// out\n        /* \"#utility.yul\":6177:6303   */\n    tag_185:\n        /* \"#utility.yul\":6214:6221   */\n      0x00\n        /* \"#utility.yul\":6254:6296   */\n      0xffffffffffffffffffffffffffffffffffffffff\n        /* \"#utility.yul\":6247:6252   */\n      dup3\n        /* \"#utility.yul\":6243:6297   */\n      and\n        /* \"#utility.yul\":6232:6297   */\n      swap1\n      pop\n        /* \"#utility.yul\":6177:6303   */\n      swap2\n      swap1\n      pop\n      jump\t// out\n        /* \"#utility.yul\":6309:6386   */\n    tag_157:\n        /* \"#utility.yul\":6346:6353   */\n      0x00\n        /* \"#utility.yul\":6375:6380   */\n      dup2\n        /* \"#utility.yul\":6364:6380   */\n      swap1\n      pop\n        /* \"#utility.yul\":6309:6386   */\n      swap2\n      swap1\n      pop\n      jump\t// out\n        /* \"#utility.yul\":6392:6699   */\n    tag_146:\n        /* \"#utility.yul\":6460:6461   */\n      0x00\n        /* \"#utility.yul\":6470:6583   */\n    tag_190:\n        /* \"#utility.yul\":6484:6490   */\n      dup4\n        /* \"#utility.yul\":6481:6482   */\n      dup2\n        /* \"#utility.yul\":6478:6491   */\n      lt\n        /* \"#utility.yul\":6470:6583   */\n      iszero\n      tag_192\n      jumpi\n        /* \"#utility.yul\":6569:6570   */\n      dup1\n        /* \"#utility.yul\":6564:6567   */\n      dup3\n        /* \"#utility.yul\":6560:6571   */\n      add\n        /* \"#utility.yul\":6554:6572   */\n      mload\n        /* \"#utility.yul\":6550:6551   */\n      dup2\n        /* \"#utility.yul\":6545:6548   */\n      dup5\n        /* \"#utility.yul\":6541:6552   */\n      add\n        /* \"#utility.yul\":6534:6573   */\n      mstore\n        /* \"#utility.yul\":6506:6508   */\n      0x20\n        /* \"#utility.yul\":6503:6504   */\n      dup2\n        /* \"#utility.yul\":6499:6509   */\n      add\n        /* \"#utility.yul\":6494:6509   */\n      swap1\n      pop\n        /* \"#utility.yul\":6470:6583   */\n      jump(tag_190)\n    tag_192:\n        /* \"#utility.yul\":6601:6607   */\n      dup4\n        /* \"#utility.yul\":6598:6599   */\n      dup2\n        /* \"#utility.yul\":6595:6608   */\n      gt\n        /* \"#utility.yul\":6592:6693   */\n      iszero\n      tag_193\n      jumpi\n        /* \"#utility.yul\":6681:6682   */\n      0x00\n        /* \"#utility.yul\":6672:6678   */\n      dup5\n        /* \"#utility.yul\":6667:6670   */\n      dup5\n        /* \"#utility.yul\":6663:6679   */\n      add\n        /* \"#utility.yul\":6656:6683   */\n      mstore\n        /* \"#utility.yul\":6592:6693   */\n    tag_193:\n        /* \"#utility.yul\":6441:6699   */\n      pop\n        /* \"#utility.yul\":6392:6699   */\n      pop\n      pop\n      pop\n      jump\t// out\n        /* \"#utility.yul\":6705:7025   */\n    tag_62:\n        /* \"#utility.yul\":6749:6755   */\n      0x00\n        /* \"#utility.yul\":6786:6787   */\n      0x02\n        /* \"#utility.yul\":6780:6784   */\n      dup3\n        /* \"#utility.yul\":6776:6788   */\n      div\n        /* \"#utility.yul\":6766:6788   */\n      swap1\n      pop\n        /* \"#utility.yul\":6833:6834   */\n      0x01\n        /* \"#utility.yul\":6827:6831   */\n      dup3\n        /* \"#utility.yul\":6823:6835   */\n      and\n        /* \"#utility.yul\":6854:6872   */\n      dup1\n        /* \"#utility.yul\":6844:6925   */\n      tag_195\n      jumpi\n        /* \"#utility.yul\":6910:6914   */\n      0x7f\n        /* \"#utility.yul\":6902:6908   */\n      dup3\n        /* \"#utility.yul\":6898:6915   */\n      and\n        /* \"#utility.yul\":6888:6915   */\n      swap2\n      pop\n        /* \"#utility.yul\":6844:6925   */\n    tag_195:\n        /* \"#utility.yul\":6972:6974   */\n      0x20\n        /* \"#utility.yul\":6964:6970   */\n      dup3\n        /* \"#utility.yul\":6961:6975   */\n      lt\n        /* \"#utility.yul\":6941:6959   */\n      dup2\n        /* \"#utility.yul\":6938:6976   */\n      eq\n        /* \"#utility.yul\":6935:7019   */\n      iszero\n      tag_196\n      jumpi\n        /* \"#utility.yul\":6991:7009   */\n      tag_197\n      tag_198\n      jump\t// in\n    tag_197:\n        /* \"#utility.yul\":6935:7019   */\n    tag_196:\n        /* \"#utility.yul\":6756:7025   */\n      pop\n        /* \"#utility.yul\":6705:7025   */\n      swap2\n      swap1\n      pop\n      jump\t// out\n        /* \"#utility.yul\":7031:7264   */\n    tag_71:\n        /* \"#utility.yul\":7070:7073   */\n      0x00\n        /* \"#utility.yul\":7093:7117   */\n      tag_200\n        /* \"#utility.yul\":7111:7116   */\n      dup3\n        /* \"#utility.yul\":7093:7117   */\n      tag_157\n      jump\t// in\n    tag_200:\n        /* \"#utility.yul\":7084:7117   */\n      swap2\n      pop\n        /* \"#utility.yul\":7139:7205   */\n      0xffffffffffffffffffffffffffffffffffffffffffffffffffffffffffffffff\n        /* \"#utility.yul\":7132:7137   */\n      dup3\n        /* \"#utility.yul\":7129:7206   */\n      eq\n        /* \"#utility.yul\":7126:7229   */\n      iszero\n      tag_201\n      jumpi\n        /* \"#utility.yul\":7209:7227   */\n      tag_202\n      tag_203\n      jump\t// in\n    tag_202:\n        /* \"#utility.yul\":7126:7229   */\n    tag_201:\n        /* \"#utility.yul\":7256:7257   */\n      0x01\n        /* \"#utility.yul\":7249:7254   */\n      dup3\n        /* \"#utility.yul\":7245:7258   */\n      add\n        /* \"#utility.yul\":7238:7258   */\n      swap1\n      pop\n        /* \"#utility.yul\":7031:7264   */\n      swap2\n      swap1\n      pop\n      jump\t// out\n        /* \"#utility.yul\":7270:7450   */\n    tag_203:\n        /* \"#utility.yul\":7318:7395   */\n      0x4e487b7100000000000000000000000000000000000000000000000000000000\n        /* \"#utility.yul\":7315:7316   */\n      0x00\n        /* \"#utility.yul\":7308:7396   */\n      mstore\n        /* \"#utility.yul\":7415:7419   */\n      0x11\n        /* \"#utility.yul\":7412:7413   */\n      0x04\n        /* \"#utility.yul\":7405:7420   */\n      mstore\n        /* \"#utility.yul\":7439:7443   */\n      0x24\n        /* \"#utility.yul\":7436:7437   */\n      0x00\n        /* \"#utility.yul\":7429:7444   */\n      revert\n        /* \"#utility.yul\":7456:7636   */\n    tag_182:\n        /* \"#utility.yul\":7504:7581   */\n      0x4e487b7100000000000000000000000000000000000000000000000000000000\n        /* \"#utility.yul\":7501:7502   */\n      0x00\n        /* \"#utility.yul\":7494:7582   */\n      mstore\n        /* \"#utility.yul\":7601:7605   */\n      0x12\n        /* \"#utility.yul\":7598:7599   */\n      0x04\n        /* \"#utility.yul\":7591:7606   */\n      mstore\n        /* \"#utility.yul\":7625:7629   */\n      0x24\n        /* \"#utility.yul\":7622:7623   */\n      0x00\n        /* \"#utility.yul\":7615:7630   */\n      revert\n        /* \"#utility.yul\":7642:7822   */\n    tag_198:\n        /* \"#utility.yul\":7690:7767   */\n      0x4e487b7100000000000000000000000000000000000000000000000000000000\n        /* \"#utility.yul\":7687:7688   */\n      0x00\n        /* \"#utility.yul\":7680:7768   */\n      mstore\n        /* \"#utility.yul\":7787:7791   */\n      0x22\n        /* \"#utility.yul\":7784:7785   */\n      0x04\n        /* \"#utility.yul\":7777:7792   */\n      mstore\n        /* \"#utility.yul\":7811:7815   */\n      0x24\n        /* \"#utility.yul\":7808:7809   */\n      0x00\n        /* \"#utility.yul\":7801:7816   */\n      revert\n        /* \"#utility.yul\":7828:7945   */\n    tag_105:\n        /* \"#utility.yul\":7937:7938   */\n      0x00\n        /* \"#utility.yul\":7934:7935   */\n      dup1\n        /* \"#utility.yul\":7927:7939   */\n      revert\n        /* \"#utility.yul\":7951:8068   */\n    tag_102:\n        /* \"#utility.yul\":8060:8061   */\n      0x00\n        /* \"#utility.yul\":8057:8058   */\n      dup1\n        /* \"#utility.yul\":8050:8062   */\n      revert\n        /* \"#utility.yul\":8074:8191   */\n    tag_108:\n        /* \"#utility.yul\":8183:8184   */\n      0x00\n        /* \"#utility.yul\":8180:8181   */\n      dup1\n        /* \"#utility.yul\":8173:8185   */\n      revert\n        /* \"#utility.yul\":8197:8314   */\n    tag_123:\n        /* \"#utility.yul\":8306:8307   */\n      0x00\n        /* \"#utility.yul\":8303:8304   */\n      dup1\n        /* \"#utility.yul\":8296:8308   */\n      revert\n        /* \"#utility.yul\":8320:8437   */\n    tag_116:\n        /* \"#utility.yul\":8429:8430   */\n      0x00\n        /* \"#utility.yul\":8426:8427   */\n      dup1\n        /* \"#utility.yul\":8419:8431   */\n      revert\n        /* \"#utility.yul\":8443:8545   */\n    tag_148:\n        /* \"#utility.yul\":8484:8490   */\n      0x00\n        /* \"#utility.yul\":8535:8537   */\n      0x1f\n        /* \"#utility.yul\":8531:8538   */\n      not\n        /* \"#utility.yul\":8526:8528   */\n      0x1f\n        /* \"#utility.yul\":8519:8524   */\n      dup4\n        /* \"#utility.yul\":8515:8529   */\n      add\n        /* \"#utility.yul\":8511:8539   */\n      and\n        /* \"#utility.yul\":8501:8539   */\n      swap1\n      pop\n        /* \"#utility.yul\":8443:8545   */\n      swap2\n      swap1\n      pop\n      jump\t// out\n        /* \"#utility.yul\":8551:8727   */\n    tag_153:\n        /* \"#utility.yul\":8691:8719   */\n      0x4e6f7420656e6f7567682065746865722070726f76696465642e000000000000\n        /* \"#utility.yul\":8687:8688   */\n      0x00\n        /* \"#utility.yul\":8679:8685   */\n      dup3\n        /* \"#utility.yul\":8675:8689   */\n      add\n        /* \"#utility.yul\":8668:8720   */\n      mstore\n        /* \"#utility.yul\":8551:8727   */\n      pop\n      jump\t// out\n        /* \"#utility.yul\":8733:8855   */\n    tag_97:\n        /* \"#utility.yul\":8806:8830   */\n      tag_215\n        /* \"#utility.yul\":8824:8829   */\n      dup2\n        /* \"#utility.yul\":8806:8830   */\n      tag_134\n      jump\t// in\n    tag_215:\n        /* \"#utility.yul\":8799:8804   */\n      dup2\n        /* \"#utility.yul\":8796:8831   */\n      eq\n        /* \"#utility.yul\":8786:8849   */\n      tag_216\n      jumpi\n        /* \"#utility.yul\":8845:8846   */\n      0x00\n        /* \"#utility.yul\":8842:8843   */\n      dup1\n        /* \"#utility.yul\":8835:8847   */\n      revert\n        /* \"#utility.yul\":8786:8849   */\n    tag_216:\n        /* \"#utility.yul\":8733:8855   */\n      pop\n      jump\t// out\n        /* \"#utility.yul\":8861:8983   */\n    tag_112:\n        /* \"#utility.yul\":8934:8958   */\n      tag_218\n        /* \"#utility.yul\":8952:8957   */\n      dup2\n        /* \"#utility.yul\":8934:8958   */\n      tag_157\n      jump\t// in\n    tag_218:\n        /* \"#utility.yul\":8927:8932   */\n      dup2\n        /* \"#utility.yul\":8924:8959   */\n      eq\n        /* \"#utility.yul\":8914:8977   */\n      tag_219\n      jumpi\n        /* \"#utility.yul\":8973:8974   */\n      0x00\n        /* \"#utility.yul\":8970:8971   */\n      dup1\n        /* \"#utility.yul\":8963:8975   */\n      revert\n        /* \"#utility.yul\":8914:8977   */\n    tag_219:\n        /* \"#utility.yul\":8861:8983   */\n      pop\n      jump\t// out\n\n    auxdata: 0xa2646970667358221220de4e9317f8b07682d620e3aaa02186b10b2f2f2f508cd5adef441587c7421f8f64736f6c63430008070033\n}\n","bytecode":{"linkReferences":{},"object":"6080604052600080553480156200001557600080fd5b5060405162000edb38038062000edb83398181016040528101906200003b9190620000b9565b80600260006101000a81548173ffffffffffffffffffffffffffffffffffffffff021916908373ffffffffffffffffffffffffffffffffffffffff16021790555081600381905550505062000177565b6000815190506200009c8162000143565b92915050565b600081519050620000b3816200015d565b92915050565b60008060408385031215620000d357620000d26200013e565b5b6000620000e385828601620000a2565b9250506020620000f6858286016200008b565b9150509250929050565b60006200010d8262000114565b9050919050565b600073ffffffffffffffffffffffffffffffffffffffff82169050919050565b6000819050919050565b600080fd5b6200014e8162000100565b81146200015a57600080fd5b50565b620001688162000134565b81146200017457600080fd5b50565b610d5480620001876000396000f3fe6080604052600436106100865760003560e01c806382fde0931161005957806382fde093146101515780638a9cfd551461017c578063937e09b114610198578063d7bb99ba146101c3578063d7d1bbdb146101cd57610086565b8063034410061461008b5780630a144391146100a7578063481c6a75146100e457806381d12c581461010f575b600080fd5b6100a560048036038101906100a0919061093e565b6101e9565b005b3480156100b357600080fd5b506100ce60048036038101906100c9919061089d565b610324565b6040516100db9190610a0f565b60405180910390f35b3480156100f057600080fd5b506100f9610344565b60405161010691906109f4565b60405180910390f35b34801561011b57600080fd5b506101366004803603810190610131919061093e565b61036a565b60405161014896959493929190610a65565b60405180910390f35b34801561015d57600080fd5b5061016661045b565b6040516101739190610a4a565b60405180910390f35b610196600480360381019061019191906108ca565b610461565b005b3480156101a457600080fd5b506101ad610580565b6040516101ba9190610a4a565b60405180910390f35b6101cb610586565b005b6101e760048036038101906101e2919061093e565b61063c565b005b600260009054906101000a900473ffffffffffffffffffffffffffffffffffffffff1673ffffffffffffffffffffffffffffffffffffffff163373ffffffffffffffffffffffffffffffffffffffff161461024357600080fd5b60006001600083815260200190815260200160002090508060030160149054906101000a900460ff161561027657600080fd5b60026005546102859190610ae9565b81600401541161029457600080fd5b60018160030160146101000a81548160ff0219169083151502179055508060030160009054906101000a900473ffffffffffffffffffffffffffffffffffffffff1673ffffffffffffffffffffffffffffffffffffffff166108fc82600201549081150290604051600060405180830381858888f1935050505015801561031f573d6000803e3d6000fd5b505050565b60046020528060005260406000206000915054906101000a900460ff1681565b600260009054906101000a900473ffffffffffffffffffffffffffffffffffffffff1681565b600160205280600052604060002060009150905080600001549080600101805461039390610b95565b80601f01602080910402602001604051908101604052809291908181526020018280546103bf90610b95565b801561040c5780601f106103e15761010080835404028352916020019161040c565b820191906000526020600020905b8154815290600101906020018083116103ef57829003601f168201915b5050505050908060020154908060030160009054906101000a900473ffffffffffffffffffffffffffffffffffffffff16908060030160149054906101000a900460ff16908060040154905086565b60055481565b600260009054906101000a900473ffffffffffffffffffffffffffffffffffffffff1673ffffffffffffffffffffffffffffffffffffffff163373ffffffffffffffffffffffffffffffffffffffff16146104bb57600080fd5b6000600160008060008154809291906104d390610bc7565b91905055815260200190815260200160002090506000548160000181905550848482600101919061050592919061077a565b50828160020181905550818160030160006101000a81548173ffffffffffffffffffffffffffffffffffffffff021916908373ffffffffffffffffffffffffffffffffffffffff16021790555060008160030160146101000a81548160ff021916908315150217905550600081600401819055505050505050565b60035481565b60035434116105ca576040517f08c379a00000000000000000000000000000000000000000000000000000000081526004016105c190610a2a565b60405180910390fd5b6001600460003373ffffffffffffffffffffffffffffffffffffffff1673ffffffffffffffffffffffffffffffffffffffff16815260200190815260200160002060006101000a81548160ff0219169083151502179055506005600081548092919061063590610bc7565b9190505550565b6000600160008381526020019081526020016000209050600460003373ffffffffffffffffffffffffffffffffffffffff1673ffffffffffffffffffffffffffffffffffffffff16815260200190815260200160002060009054906101000a900460ff166106a957600080fd5b8060050160003373ffffffffffffffffffffffffffffffffffffffff1673ffffffffffffffffffffffffffffffffffffffff16815260200190815260200160002060009054906101000a900460ff161561070257600080fd5b60018160050160003373ffffffffffffffffffffffffffffffffffffffff1673ffffffffffffffffffffffffffffffffffffffff16815260200190815260200160002060006101000a81548160ff02191690831515021790555080600401600081548092919061077190610bc7565b91905055505050565b82805461078690610b95565b90600052602060002090601f0160209004810192826107a857600085556107ef565b82601f106107c157803560ff19168380011785556107ef565b828001600101855582156107ef579182015b828111156107ee5782358255916020019190600101906107d3565b5b5090506107fc9190610800565b5090565b5b80821115610819576000816000905550600101610801565b5090565b60008135905061082c81610cf0565b92915050565b60008083601f84011261084857610847610ca2565b5b8235905067ffffffffffffffff81111561086557610864610c9d565b5b60208301915083600182028301111561088157610880610ca7565b5b9250929050565b60008135905061089781610d07565b92915050565b6000602082840312156108b3576108b2610cb1565b5b60006108c18482850161081d565b91505092915050565b600080600080606085870312156108e4576108e3610cb1565b5b600085013567ffffffffffffffff81111561090257610901610cac565b5b61090e87828801610832565b9450945050602061092187828801610888565b92505060406109328782880161081d565b91505092959194509250565b60006020828403121561095457610953610cb1565b5b600061096284828501610888565b91505092915050565b61097481610b1a565b82525050565b61098381610b2c565b82525050565b600061099482610acd565b61099e8185610ad8565b93506109ae818560208601610b62565b6109b781610cb6565b840191505092915050565b60006109cf601a83610ad8565b91506109da82610cc7565b602082019050919050565b6109ee81610b58565b82525050565b6000602082019050610a09600083018461096b565b92915050565b6000602082019050610a24600083018461097a565b92915050565b60006020820190508181036000830152610a43816109c2565b9050919050565b6000602082019050610a5f60008301846109e5565b92915050565b600060c082019050610a7a60008301896109e5565b8181036020830152610a8c8188610989565b9050610a9b60408301876109e5565b610aa8606083018661096b565b610ab5608083018561097a565b610ac260a08301846109e5565b979650505050505050565b600081519050919050565b600082825260208201905092915050565b6000610af482610b58565b9150610aff83610b58565b925082610b0f57610b0e610c3f565b5b828204905092915050565b6000610b2582610b38565b9050919050565b60008115159050919050565b600073ffffffffffffffffffffffffffffffffffffffff82169050919050565b6000819050919050565b60005b83811015610b80578082015181840152602081019050610b65565b83811115610b8f576000848401525b50505050565b60006002820490506001821680610bad57607f821691505b60208210811415610bc157610bc0610c6e565b5b50919050565b6000610bd282610b58565b91507fffffffffffffffffffffffffffffffffffffffffffffffffffffffffffffffff821415610c0557610c04610c10565b5b600182019050919050565b7f4e487b7100000000000000000000000000000000000000000000000000000000600052601160045260246000fd5b7f4e487b7100000000000000000000000000000000000000000000000000000000600052601260045260246000fd5b7f4e487b7100000000000000000000000000000000000000000000000000000000600052602260045260246000fd5b600080fd5b600080fd5b600080fd5b600080fd5b600080fd5b6000601f19601f8301169050919050565b7f4e6f7420656e6f7567682065746865722070726f76696465642e000000000000600082015250565b610cf981610b1a565b8114610d0457600080fd5b50565b610d1081610b58565b8114610d1b57600080fd5b5056fea2646970667358221220de4e9317f8b07682d620e3aaa02186b10b2f2f2f508cd5adef441587c7421f8f64736f6c63430008070033","opcodes":"PUSH1 0x80 PUSH1 0x40 MSTORE PUSH1 0x0 DUP1 SSTORE CALLVALUE DUP1 ISZERO PUSH3 0x15 JUMPI PUSH1 0x0 DUP1 REVERT JUMPDEST POP PUSH1 0x40 MLOAD PUSH3 0xEDB CODESIZE SUB DUP1 PUSH3 0xEDB DUP4 CODECOPY DUP2 DUP2 ADD PUSH1 0x40 MSTORE DUP2 ADD SWAP1 PUSH3 0x3B SWAP2 SWAP1 PUSH3 0xB9 JUMP JUMPDEST DUP1 PUSH1 0x2 PUSH1 0x0 PUSH2 0x100 EXP DUP2 SLOAD DUP2 PUSH20 0xFFFFFFFFFFFFFFFFFFFFFFFFFFFFFFFFFFFFFFFF MUL NOT AND SWAP1 DUP4 PUSH20 0xFFFFFFFFFFFFFFFFFFFFFFFFFFFFFFFFFFFFFFFF AND MUL OR SWAP1 SSTORE POP DUP2 PUSH1 0x3 DUP2 SWAP1 SSTORE POP POP POP PUSH3 0x177 JUMP JUMPDEST PUSH1 0x0 DUP2 MLOAD SWAP1 POP PUSH3 0x9C DUP2 PUSH3 0x143 JUMP JUMPDEST SWAP3 SWAP2 POP POP JUMP JUMPDEST PUSH1 0x0 DUP2 MLOAD SWAP1 POP PUSH3 0xB3 DUP2 PUSH3 0x15D JUMP JUMPDEST SWAP3 SWAP2 POP POP JUMP JUMPDEST PUSH1 0x0 DUP1 PUSH1 0x40 DUP4 DUP6 SUB SLT ISZERO PUSH3 0xD3 JUMPI PUSH3 0xD2 PUSH3 0x13E JUMP JUMPDEST JUMPDEST PUSH1 0x0 PUSH3 0xE3 DUP6 DUP3 DUP7 ADD PUSH3 0xA2 JUMP JUMPDEST SWAP3 POP POP PUSH1 0x20 PUSH3 0xF6 DUP6 DUP3 DUP7 ADD PUSH3 0x8B JUMP JUMPDEST SWAP2 POP POP SWAP3 POP SWAP3 SWAP1 POP JUMP JUMPDEST PUSH1 0x0 PUSH3 0x10D DUP3 PUSH3 0x114 JUMP JUMPDEST SWAP1 POP SWAP2 SWAP1 POP JUMP JUMPDEST PUSH1 0x0 PUSH20 0xFFFFFFFFFFFFFFFFFFFFFFFFFFFFFFFFFFFFFFFF DUP3 AND SWAP1 POP SWAP2 SWAP1 POP JUMP JUMPDEST PUSH1 0x0 DUP2 SWAP1 POP SWAP2 SWAP1 POP JUMP JUMPDEST PUSH1 0x0 DUP1 REVERT JUMPDEST PUSH3 0x14E DUP2 PUSH3 0x100 JUMP JUMPDEST DUP2 EQ PUSH3 0x15A JUMPI PUSH1 0x0 DUP1 REVERT JUMPDEST POP JUMP JUMPDEST PUSH3 0x168 DUP2 PUSH3 0x134 JUMP JUMPDEST DUP2 EQ PUSH3 0x174 JUMPI PUSH1 0x0 DUP1 REVERT JUMPDEST POP JUMP JUMPDEST PUSH2 0xD54 DUP1 PUSH3 0x187 PUSH1 0x0 CODECOPY PUSH1 0x0 RETURN INVALID PUSH1 0x80 PUSH1 0x40 MSTORE PUSH1 0x4 CALLDATASIZE LT PUSH2 0x86 JUMPI PUSH1 0x0 CALLDATALOAD PUSH1 0xE0 SHR DUP1 PUSH4 0x82FDE093 GT PUSH2 0x59 JUMPI DUP1 PUSH4 0x82FDE093 EQ PUSH2 0x151 JUMPI DUP1 PUSH4 0x8A9CFD55 EQ PUSH2 0x17C JUMPI DUP1 PUSH4 0x937E09B1 EQ PUSH2 0x198 JUMPI DUP1 PUSH4 0xD7BB99BA EQ PUSH2 0x1C3 JUMPI DUP1 PUSH4 0xD7D1BBDB EQ PUSH2 0x1CD JUMPI PUSH2 0x86 JUMP JUMPDEST DUP1 PUSH4 0x3441006 EQ PUSH2 0x8B JUMPI DUP1 PUSH4 0xA144391 EQ PUSH2 0xA7 JUMPI DUP1 PUSH4 0x481C6A75 EQ PUSH2 0xE4 JUMPI DUP1 PUSH4 0x81D12C58 EQ PUSH2 0x10F JUMPI JUMPDEST PUSH1 0x0 DUP1 REVERT JUMPDEST PUSH2 0xA5 PUSH1 0x4 DUP1 CALLDATASIZE SUB DUP2 ADD SWAP1 PUSH2 0xA0 SWAP2 SWAP1 PUSH2 0x93E JUMP JUMPDEST PUSH2 0x1E9 JUMP JUMPDEST STOP JUMPDEST CALLVALUE DUP1 ISZERO PUSH2 0xB3 JUMPI PUSH1 0x0 DUP1 REVERT JUMPDEST POP PUSH2 0xCE PUSH1 0x4 DUP1 CALLDATASIZE SUB DUP2 ADD SWAP1 PUSH2 0xC9 SWAP2 SWAP1 PUSH2 0x89D JUMP JUMPDEST PUSH2 0x324 JUMP JUMPDEST PUSH1 0x40 MLOAD PUSH2 0xDB SWAP2 SWAP1 PUSH2 0xA0F JUMP JUMPDEST PUSH1 0x40 MLOAD DUP1 SWAP2 SUB SWAP1 RETURN JUMPDEST CALLVALUE DUP1 ISZERO PUSH2 0xF0 JUMPI PUSH1 0x0 DUP1 REVERT JUMPDEST POP PUSH2 0xF9 PUSH2 0x344 JUMP JUMPDEST PUSH1 0x40 MLOAD PUSH2 0x106 SWAP2 SWAP1 PUSH2 0x9F4 JUMP JUMPDEST PUSH1 0x40 MLOAD DUP1 SWAP2 SUB SWAP1 RETURN JUMPDEST CALLVALUE DUP1 ISZERO PUSH2 0x11B JUMPI PUSH1 0x0 DUP1 REVERT JUMPDEST POP PUSH2 0x136 PUSH1 0x4 DUP1 CALLDATASIZE SUB DUP2 ADD SWAP1 PUSH2 0x131 SWAP2 SWAP1 PUSH2 0x93E JUMP JUMPDEST PUSH2 0x36A JUMP JUMPDEST PUSH1 0x40 MLOAD PUSH2 0x148 SWAP7 SWAP6 SWAP5 SWAP4 SWAP3 SWAP2 SWAP1 PUSH2 0xA65 JUMP JUMPDEST PUSH1 0x40 MLOAD DUP1 SWAP2 SUB SWAP1 RETURN JUMPDEST CALLVALUE DUP1 ISZERO PUSH2 0x15D JUMPI PUSH1 0x0 DUP1 REVERT JUMPDEST POP PUSH2 0x166 PUSH2 0x45B JUMP JUMPDEST PUSH1 0x40 MLOAD PUSH2 0x173 SWAP2 SWAP1 PUSH2 0xA4A JUMP JUMPDEST PUSH1 0x40 MLOAD DUP1 SWAP2 SUB SWAP1 RETURN JUMPDEST PUSH2 0x196 PUSH1 0x4 DUP1 CALLDATASIZE SUB DUP2 ADD SWAP1 PUSH2 0x191 SWAP2 SWAP1 PUSH2 0x8CA JUMP JUMPDEST PUSH2 0x461 JUMP JUMPDEST STOP JUMPDEST CALLVALUE DUP1 ISZERO PUSH2 0x1A4 JUMPI PUSH1 0x0 DUP1 REVERT JUMPDEST POP PUSH2 0x1AD PUSH2 0x580 JUMP JUMPDEST PUSH1 0x40 MLOAD PUSH2 0x1BA SWAP2 SWAP1 PUSH2 0xA4A JUMP JUMPDEST PUSH1 0x40 MLOAD DUP1 SWAP2 SUB SWAP1 RETURN JUMPDEST PUSH2 0x1CB PUSH2 0x586 JUMP JUMPDEST STOP JUMPDEST PUSH2 0x1E7 PUSH1 0x4 DUP1 CALLDATASIZE SUB DUP2 ADD SWAP1 PUSH2 0x1E2 SWAP2 SWAP1 PUSH2 0x93E JUMP JUMPDEST PUSH2 0x63C JUMP JUMPDEST STOP JUMPDEST PUSH1 0x2 PUSH1 0x0 SWAP1 SLOAD SWAP1 PUSH2 0x100 EXP SWAP1 DIV PUSH20 0xFFFFFFFFFFFFFFFFFFFFFFFFFFFFFFFFFFFFFFFF AND PUSH20 0xFFFFFFFFFFFFFFFFFFFFFFFFFFFFFFFFFFFFFFFF AND CALLER PUSH20 0xFFFFFFFFFFFFFFFFFFFFFFFFFFFFFFFFFFFFFFFF AND EQ PUSH2 0x243 JUMPI PUSH1 0x0 DUP1 REVERT JUMPDEST PUSH1 0x0 PUSH1 0x1 PUSH1 0x0 DUP4 DUP2 MSTORE PUSH1 0x20 ADD SWAP1 DUP2 MSTORE PUSH1 0x20 ADD PUSH1 0x0 KECCAK256 SWAP1 POP DUP1 PUSH1 0x3 ADD PUSH1 0x14 SWAP1 SLOAD SWAP1 PUSH2 0x100 EXP SWAP1 DIV PUSH1 0xFF AND ISZERO PUSH2 0x276 JUMPI PUSH1 0x0 DUP1 REVERT JUMPDEST PUSH1 0x2 PUSH1 0x5 SLOAD PUSH2 0x285 SWAP2 SWAP1 PUSH2 0xAE9 JUMP JUMPDEST DUP2 PUSH1 0x4 ADD SLOAD GT PUSH2 0x294 JUMPI PUSH1 0x0 DUP1 REVERT JUMPDEST PUSH1 0x1 DUP2 PUSH1 0x3 ADD PUSH1 0x14 PUSH2 0x100 EXP DUP2 SLOAD DUP2 PUSH1 0xFF MUL NOT AND SWAP1 DUP4 ISZERO ISZERO MUL OR SWAP1 SSTORE POP DUP1 PUSH1 0x3 ADD PUSH1 0x0 SWAP1 SLOAD SWAP1 PUSH2 0x100 EXP SWAP1 DIV PUSH20 0xFFFFFFFFFFFFFFFFFFFFFFFFFFFFFFFFFFFFFFFF AND PUSH20 0xFFFFFFFFFFFFFFFFFFFFFFFFFFFFFFFFFFFFFFFF AND PUSH2 0x8FC DUP3 PUSH1 0x2 ADD SLOAD SWAP1 DUP2 ISZERO MUL SWAP1 PUSH1 0x40 MLOAD PUSH1 0x0 PUSH1 0x40 MLOAD DUP1 DUP4 SUB DUP2 DUP6 DUP9 DUP9 CALL SWAP4 POP POP POP POP ISZERO DUP1 ISZERO PUSH2 0x31F JUMPI RETURNDATASIZE PUSH1 0x0 DUP1 RETURNDATACOPY RETURNDATASIZE PUSH1 0x0 REVERT JUMPDEST POP POP POP JUMP JUMPDEST PUSH1 0x4 PUSH1 0x20 MSTORE DUP1 PUSH1 0x0 MSTORE PUSH1 0x40 PUSH1 0x0 KECCAK256 PUSH1 0x0 SWAP2 POP SLOAD SWAP1 PUSH2 0x100 EXP SWAP1 DIV PUSH1 0xFF AND DUP2 JUMP JUMPDEST PUSH1 0x2 PUSH1 0x0 SWAP1 SLOAD SWAP1 PUSH2 0x100 EXP SWAP1 DIV PUSH20 0xFFFFFFFFFFFFFFFFFFFFFFFFFFFFFFFFFFFFFFFF AND DUP2 JUMP JUMPDEST PUSH1 0x1 PUSH1 0x20 MSTORE DUP1 PUSH1 0x0 MSTORE PUSH1 0x40 PUSH1 0x0 KECCAK256 PUSH1 0x0 SWAP2 POP SWAP1 POP DUP1 PUSH1 0x0 ADD SLOAD SWAP1 DUP1 PUSH1 0x1 ADD DUP1 SLOAD PUSH2 0x393 SWAP1 PUSH2 0xB95 JUMP JUMPDEST DUP1 PUSH1 0x1F ADD PUSH1 0x20 DUP1 SWAP2 DIV MUL PUSH1 0x20 ADD PUSH1 0x40 MLOAD SWAP1 DUP2 ADD PUSH1 0x40 MSTORE DUP1 SWAP3 SWAP2 SWAP1 DUP2 DUP2 MSTORE PUSH1 0x20 ADD DUP3 DUP1 SLOAD PUSH2 0x3BF SWAP1 PUSH2 0xB95 JUMP JUMPDEST DUP1 ISZERO PUSH2 0x40C JUMPI DUP1 PUSH1 0x1F LT PUSH2 0x3E1 JUMPI PUSH2 0x100 DUP1 DUP4 SLOAD DIV MUL DUP4 MSTORE SWAP2 PUSH1 0x20 ADD SWAP2 PUSH2 0x40C JUMP JUMPDEST DUP3 ADD SWAP2 SWAP1 PUSH1 0x0 MSTORE PUSH1 0x20 PUSH1 0x0 KECCAK256 SWAP1 JUMPDEST DUP2 SLOAD DUP2 MSTORE SWAP1 PUSH1 0x1 ADD SWAP1 PUSH1 0x20 ADD DUP1 DUP4 GT PUSH2 0x3EF JUMPI DUP3 SWAP1 SUB PUSH1 0x1F AND DUP3 ADD SWAP2 JUMPDEST POP POP POP POP POP SWAP1 DUP1 PUSH1 0x2 ADD SLOAD SWAP1 DUP1 PUSH1 0x3 ADD PUSH1 0x0 SWAP1 SLOAD SWAP1 PUSH2 0x100 EXP SWAP1 DIV PUSH20 0xFFFFFFFFFFFFFFFFFFFFFFFFFFFFFFFFFFFFFFFF AND SWAP1 DUP1 PUSH1 0x3 ADD PUSH1 0x14 SWAP1 SLOAD SWAP1 PUSH2 0x100 EXP SWAP1 DIV PUSH1 0xFF AND SWAP1 DUP1 PUSH1 0x4 ADD SLOAD SWAP1 POP DUP7 JUMP JUMPDEST PUSH1 0x5 SLOAD DUP2 JUMP JUMPDEST PUSH1 0x2 PUSH1 0x0 SWAP1 SLOAD SWAP1 PUSH2 0x100 EXP SWAP1 DIV PUSH20 0xFFFFFFFFFFFFFFFFFFFFFFFFFFFFFFFFFFFFFFFF AND PUSH20 0xFFFFFFFFFFFFFFFFFFFFFFFFFFFFFFFFFFFFFFFF AND CALLER PUSH20 0xFFFFFFFFFFFFFFFFFFFFFFFFFFFFFFFFFFFFFFFF AND EQ PUSH2 0x4BB JUMPI PUSH1 0x0 DUP1 REVERT JUMPDEST PUSH1 0x0 PUSH1 0x1 PUSH1 0x0 DUP1 PUSH1 0x0 DUP2 SLOAD DUP1 SWAP3 SWAP2 SWAP1 PUSH2 0x4D3 SWAP1 PUSH2 0xBC7 JUMP JUMPDEST SWAP2 SWAP1 POP SSTORE DUP2 MSTORE PUSH1 0x20 ADD SWAP1 DUP2 MSTORE PUSH1 0x20 ADD PUSH1 0x0 KECCAK256 SWAP1 POP PUSH1 0x0 SLOAD DUP2 PUSH1 0x0 ADD DUP2 SWAP1 SSTORE POP DUP5 DUP5 DUP3 PUSH1 0x1 ADD SWAP2 SWAP1 PUSH2 0x505 SWAP3 SWAP2 SWAP1 PUSH2 0x77A JUMP JUMPDEST POP DUP3 DUP2 PUSH1 0x2 ADD DUP2 SWAP1 SSTORE POP DUP2 DUP2 PUSH1 0x3 ADD PUSH1 0x0 PUSH2 0x100 EXP DUP2 SLOAD DUP2 PUSH20 0xFFFFFFFFFFFFFFFFFFFFFFFFFFFFFFFFFFFFFFFF MUL NOT AND SWAP1 DUP4 PUSH20 0xFFFFFFFFFFFFFFFFFFFFFFFFFFFFFFFFFFFFFFFF AND MUL OR SWAP1 SSTORE POP PUSH1 0x0 DUP2 PUSH1 0x3 ADD PUSH1 0x14 PUSH2 0x100 EXP DUP2 SLOAD DUP2 PUSH1 0xFF MUL NOT AND SWAP1 DUP4 ISZERO ISZERO MUL OR SWAP1 SSTORE POP PUSH1 0x0 DUP2 PUSH1 0x4 ADD DUP2 SWAP1 SSTORE POP POP POP POP POP POP JUMP JUMPDEST PUSH1 0x3 SLOAD DUP2 JUMP JUMPDEST PUSH1 0x3 SLOAD CALLVALUE GT PUSH2 0x5CA JUMPI PUSH1 0x40 MLOAD PUSH32 0x8C379A000000000000000000000000000000000000000000000000000000000 DUP2 MSTORE PUSH1 0x4 ADD PUSH2 0x5C1 SWAP1 PUSH2 0xA2A JUMP JUMPDEST PUSH1 0x40 MLOAD DUP1 SWAP2 SUB SWAP1 REVERT JUMPDEST PUSH1 0x1 PUSH1 0x4 PUSH1 0x0 CALLER PUSH20 0xFFFFFFFFFFFFFFFFFFFFFFFFFFFFFFFFFFFFFFFF AND PUSH20 0xFFFFFFFFFFFFFFFFFFFFFFFFFFFFFFFFFFFFFFFF AND DUP2 MSTORE PUSH1 0x20 ADD SWAP1 DUP2 MSTORE PUSH1 0x20 ADD PUSH1 0x0 KECCAK256 PUSH1 0x0 PUSH2 0x100 EXP DUP2 SLOAD DUP2 PUSH1 0xFF MUL NOT AND SWAP1 DUP4 ISZERO ISZERO MUL OR SWAP1 SSTORE POP PUSH1 0x5 PUSH1 0x0 DUP2 SLOAD DUP1 SWAP3 SWAP2 SWAP1 PUSH2 0x635 SWAP1 PUSH2 0xBC7 JUMP JUMPDEST SWAP2 SWAP1 POP SSTORE POP JUMP JUMPDEST PUSH1 0x0 PUSH1 0x1 PUSH1 0x0 DUP4 DUP2 MSTORE PUSH1 0x20 ADD SWAP1 DUP2 MSTORE PUSH1 0x20 ADD PUSH1 0x0 KECCAK256 SWAP1 POP PUSH1 0x4 PUSH1 0x0 CALLER PUSH20 0xFFFFFFFFFFFFFFFFFFFFFFFFFFFFFFFFFFFFFFFF AND PUSH20 0xFFFFFFFFFFFFFFFFFFFFFFFFFFFFFFFFFFFFFFFF AND DUP2 MSTORE PUSH1 0x20 ADD SWAP1 DUP2 MSTORE PUSH1 0x20 ADD PUSH1 0x0 KECCAK256 PUSH1 0x0 SWAP1 SLOAD SWAP1 PUSH2 0x100 EXP SWAP1 DIV PUSH1 0xFF AND PUSH2 0x6A9 JUMPI PUSH1 0x0 DUP1 REVERT JUMPDEST DUP1 PUSH1 0x5 ADD PUSH1 0x0 CALLER PUSH20 0xFFFFFFFFFFFFFFFFFFFFFFFFFFFFFFFFFFFFFFFF AND PUSH20 0xFFFFFFFFFFFFFFFFFFFFFFFFFFFFFFFFFFFFFFFF AND DUP2 MSTORE PUSH1 0x20 ADD SWAP1 DUP2 MSTORE PUSH1 0x20 ADD PUSH1 0x0 KECCAK256 PUSH1 0x0 SWAP1 SLOAD SWAP1 PUSH2 0x100 EXP SWAP1 DIV PUSH1 0xFF AND ISZERO PUSH2 0x702 JUMPI PUSH1 0x0 DUP1 REVERT JUMPDEST PUSH1 0x1 DUP2 PUSH1 0x5 ADD PUSH1 0x0 CALLER PUSH20 0xFFFFFFFFFFFFFFFFFFFFFFFFFFFFFFFFFFFFFFFF AND PUSH20 0xFFFFFFFFFFFFFFFFFFFFFFFFFFFFFFFFFFFFFFFF AND DUP2 MSTORE PUSH1 0x20 ADD SWAP1 DUP2 MSTORE PUSH1 0x20 ADD PUSH1 0x0 KECCAK256 PUSH1 0x0 PUSH2 0x100 EXP DUP2 SLOAD DUP2 PUSH1 0xFF MUL NOT AND SWAP1 DUP4 ISZERO ISZERO MUL OR SWAP1 SSTORE POP DUP1 PUSH1 0x4 ADD PUSH1 0x0 DUP2 SLOAD DUP1 SWAP3 SWAP2 SWAP1 PUSH2 0x771 SWAP1 PUSH2 0xBC7 JUMP JUMPDEST SWAP2 SWAP1 POP SSTORE POP POP POP JUMP JUMPDEST DUP3 DUP1 SLOAD PUSH2 0x786 SWAP1 PUSH2 0xB95 JUMP JUMPDEST SWAP1 PUSH1 0x0 MSTORE PUSH1 0x20 PUSH1 0x0 KECCAK256 SWAP1 PUSH1 0x1F ADD PUSH1 0x20 SWAP1 DIV DUP2 ADD SWAP3 DUP3 PUSH2 0x7A8 JUMPI PUSH1 0x0 DUP6 SSTORE PUSH2 0x7EF JUMP JUMPDEST DUP3 PUSH1 0x1F LT PUSH2 0x7C1 JUMPI DUP1 CALLDATALOAD PUSH1 0xFF NOT AND DUP4 DUP1 ADD OR DUP6 SSTORE PUSH2 0x7EF JUMP JUMPDEST DUP3 DUP1 ADD PUSH1 0x1 ADD DUP6 SSTORE DUP3 ISZERO PUSH2 0x7EF JUMPI SWAP2 DUP3 ADD JUMPDEST DUP3 DUP2 GT ISZERO PUSH2 0x7EE JUMPI DUP3 CALLDATALOAD DUP3 SSTORE SWAP2 PUSH1 0x20 ADD SWAP2 SWAP1 PUSH1 0x1 ADD SWAP1 PUSH2 0x7D3 JUMP JUMPDEST JUMPDEST POP SWAP1 POP PUSH2 0x7FC SWAP2 SWAP1 PUSH2 0x800 JUMP JUMPDEST POP SWAP1 JUMP JUMPDEST JUMPDEST DUP1 DUP3 GT ISZERO PUSH2 0x819 JUMPI PUSH1 0x0 DUP2 PUSH1 0x0 SWAP1 SSTORE POP PUSH1 0x1 ADD PUSH2 0x801 JUMP JUMPDEST POP SWAP1 JUMP JUMPDEST PUSH1 0x0 DUP2 CALLDATALOAD SWAP1 POP PUSH2 0x82C DUP2 PUSH2 0xCF0 JUMP JUMPDEST SWAP3 SWAP2 POP POP JUMP JUMPDEST PUSH1 0x0 DUP1 DUP4 PUSH1 0x1F DUP5 ADD SLT PUSH2 0x848 JUMPI PUSH2 0x847 PUSH2 0xCA2 JUMP JUMPDEST JUMPDEST DUP3 CALLDATALOAD SWAP1 POP PUSH8 0xFFFFFFFFFFFFFFFF DUP2 GT ISZERO PUSH2 0x865 JUMPI PUSH2 0x864 PUSH2 0xC9D JUMP JUMPDEST JUMPDEST PUSH1 0x20 DUP4 ADD SWAP2 POP DUP4 PUSH1 0x1 DUP3 MUL DUP4 ADD GT ISZERO PUSH2 0x881 JUMPI PUSH2 0x880 PUSH2 0xCA7 JUMP JUMPDEST JUMPDEST SWAP3 POP SWAP3 SWAP1 POP JUMP JUMPDEST PUSH1 0x0 DUP2 CALLDATALOAD SWAP1 POP PUSH2 0x897 DUP2 PUSH2 0xD07 JUMP JUMPDEST SWAP3 SWAP2 POP POP JUMP JUMPDEST PUSH1 0x0 PUSH1 0x20 DUP3 DUP5 SUB SLT ISZERO PUSH2 0x8B3 JUMPI PUSH2 0x8B2 PUSH2 0xCB1 JUMP JUMPDEST JUMPDEST PUSH1 0x0 PUSH2 0x8C1 DUP5 DUP3 DUP6 ADD PUSH2 0x81D JUMP JUMPDEST SWAP2 POP POP SWAP3 SWAP2 POP POP JUMP JUMPDEST PUSH1 0x0 DUP1 PUSH1 0x0 DUP1 PUSH1 0x60 DUP6 DUP8 SUB SLT ISZERO PUSH2 0x8E4 JUMPI PUSH2 0x8E3 PUSH2 0xCB1 JUMP JUMPDEST JUMPDEST PUSH1 0x0 DUP6 ADD CALLDATALOAD PUSH8 0xFFFFFFFFFFFFFFFF DUP2 GT ISZERO PUSH2 0x902 JUMPI PUSH2 0x901 PUSH2 0xCAC JUMP JUMPDEST JUMPDEST PUSH2 0x90E DUP8 DUP3 DUP9 ADD PUSH2 0x832 JUMP JUMPDEST SWAP5 POP SWAP5 POP POP PUSH1 0x20 PUSH2 0x921 DUP8 DUP3 DUP9 ADD PUSH2 0x888 JUMP JUMPDEST SWAP3 POP POP PUSH1 0x40 PUSH2 0x932 DUP8 DUP3 DUP9 ADD PUSH2 0x81D JUMP JUMPDEST SWAP2 POP POP SWAP3 SWAP6 SWAP2 SWAP5 POP SWAP3 POP JUMP JUMPDEST PUSH1 0x0 PUSH1 0x20 DUP3 DUP5 SUB SLT ISZERO PUSH2 0x954 JUMPI PUSH2 0x953 PUSH2 0xCB1 JUMP JUMPDEST JUMPDEST PUSH1 0x0 PUSH2 0x962 DUP5 DUP3 DUP6 ADD PUSH2 0x888 JUMP JUMPDEST SWAP2 POP POP SWAP3 SWAP2 POP POP JUMP JUMPDEST PUSH2 0x974 DUP2 PUSH2 0xB1A JUMP JUMPDEST DUP3 MSTORE POP POP JUMP JUMPDEST PUSH2 0x983 DUP2 PUSH2 0xB2C JUMP JUMPDEST DUP3 MSTORE POP POP JUMP JUMPDEST PUSH1 0x0 PUSH2 0x994 DUP3 PUSH2 0xACD JUMP JUMPDEST PUSH2 0x99E DUP2 DUP6 PUSH2 0xAD8 JUMP JUMPDEST SWAP4 POP PUSH2 0x9AE DUP2 DUP6 PUSH1 0x20 DUP7 ADD PUSH2 0xB62 JUMP JUMPDEST PUSH2 0x9B7 DUP2 PUSH2 0xCB6 JUMP JUMPDEST DUP5 ADD SWAP2 POP POP SWAP3 SWAP2 POP POP JUMP JUMPDEST PUSH1 0x0 PUSH2 0x9CF PUSH1 0x1A DUP4 PUSH2 0xAD8 JUMP JUMPDEST SWAP2 POP PUSH2 0x9DA DUP3 PUSH2 0xCC7 JUMP JUMPDEST PUSH1 0x20 DUP3 ADD SWAP1 POP SWAP2 SWAP1 POP JUMP JUMPDEST PUSH2 0x9EE DUP2 PUSH2 0xB58 JUMP JUMPDEST DUP3 MSTORE POP POP JUMP JUMPDEST PUSH1 0x0 PUSH1 0x20 DUP3 ADD SWAP1 POP PUSH2 0xA09 PUSH1 0x0 DUP4 ADD DUP5 PUSH2 0x96B JUMP JUMPDEST SWAP3 SWAP2 POP POP JUMP JUMPDEST PUSH1 0x0 PUSH1 0x20 DUP3 ADD SWAP1 POP PUSH2 0xA24 PUSH1 0x0 DUP4 ADD DUP5 PUSH2 0x97A JUMP JUMPDEST SWAP3 SWAP2 POP POP JUMP JUMPDEST PUSH1 0x0 PUSH1 0x20 DUP3 ADD SWAP1 POP DUP2 DUP2 SUB PUSH1 0x0 DUP4 ADD MSTORE PUSH2 0xA43 DUP2 PUSH2 0x9C2 JUMP JUMPDEST SWAP1 POP SWAP2 SWAP1 POP JUMP JUMPDEST PUSH1 0x0 PUSH1 0x20 DUP3 ADD SWAP1 POP PUSH2 0xA5F PUSH1 0x0 DUP4 ADD DUP5 PUSH2 0x9E5 JUMP JUMPDEST SWAP3 SWAP2 POP POP JUMP JUMPDEST PUSH1 0x0 PUSH1 0xC0 DUP3 ADD SWAP1 POP PUSH2 0xA7A PUSH1 0x0 DUP4 ADD DUP10 PUSH2 0x9E5 JUMP JUMPDEST DUP2 DUP2 SUB PUSH1 0x20 DUP4 ADD MSTORE PUSH2 0xA8C DUP2 DUP9 PUSH2 0x989 JUMP JUMPDEST SWAP1 POP PUSH2 0xA9B PUSH1 0x40 DUP4 ADD DUP8 PUSH2 0x9E5 JUMP JUMPDEST PUSH2 0xAA8 PUSH1 0x60 DUP4 ADD DUP7 PUSH2 0x96B JUMP JUMPDEST PUSH2 0xAB5 PUSH1 0x80 DUP4 ADD DUP6 PUSH2 0x97A JUMP JUMPDEST PUSH2 0xAC2 PUSH1 0xA0 DUP4 ADD DUP5 PUSH2 0x9E5 JUMP JUMPDEST SWAP8 SWAP7 POP POP POP POP POP POP POP JUMP JUMPDEST PUSH1 0x0 DUP2 MLOAD SWAP1 POP SWAP2 SWAP1 POP JUMP JUMPDEST PUSH1 0x0 DUP3 DUP3 MSTORE PUSH1 0x20 DUP3 ADD SWAP1 POP SWAP3 SWAP2 POP POP JUMP JUMPDEST PUSH1 0x0 PUSH2 0xAF4 DUP3 PUSH2 0xB58 JUMP JUMPDEST SWAP2 POP PUSH2 0xAFF DUP4 PUSH2 0xB58 JUMP JUMPDEST SWAP3 POP DUP3 PUSH2 0xB0F JUMPI PUSH2 0xB0E PUSH2 0xC3F JUMP JUMPDEST JUMPDEST DUP3 DUP3 DIV SWAP1 POP SWAP3 SWAP2 POP POP JUMP JUMPDEST PUSH1 0x0 PUSH2 0xB25 DUP3 PUSH2 0xB38 JUMP JUMPDEST SWAP1 POP SWAP2 SWAP1 POP JUMP JUMPDEST PUSH1 0x0 DUP2 ISZERO ISZERO SWAP1 POP SWAP2 SWAP1 POP JUMP JUMPDEST PUSH1 0x0 PUSH20 0xFFFFFFFFFFFFFFFFFFFFFFFFFFFFFFFFFFFFFFFF DUP3 AND SWAP1 POP SWAP2 SWAP1 POP JUMP JUMPDEST PUSH1 0x0 DUP2 SWAP1 POP SWAP2 SWAP1 POP JUMP JUMPDEST PUSH1 0x0 JUMPDEST DUP4 DUP2 LT ISZERO PUSH2 0xB80 JUMPI DUP1 DUP3 ADD MLOAD DUP2 DUP5 ADD MSTORE PUSH1 0x20 DUP2 ADD SWAP1 POP PUSH2 0xB65 JUMP JUMPDEST DUP4 DUP2 GT ISZERO PUSH2 0xB8F JUMPI PUSH1 0x0 DUP5 DUP5 ADD MSTORE JUMPDEST POP POP POP POP JUMP JUMPDEST PUSH1 0x0 PUSH1 0x2 DUP3 DIV SWAP1 POP PUSH1 0x1 DUP3 AND DUP1 PUSH2 0xBAD JUMPI PUSH1 0x7F DUP3 AND SWAP2 POP JUMPDEST PUSH1 0x20 DUP3 LT DUP2 EQ ISZERO PUSH2 0xBC1 JUMPI PUSH2 0xBC0 PUSH2 0xC6E JUMP JUMPDEST JUMPDEST POP SWAP2 SWAP1 POP JUMP JUMPDEST PUSH1 0x0 PUSH2 0xBD2 DUP3 PUSH2 0xB58 JUMP JUMPDEST SWAP2 POP PUSH32 0xFFFFFFFFFFFFFFFFFFFFFFFFFFFFFFFFFFFFFFFFFFFFFFFFFFFFFFFFFFFFFFFF DUP3 EQ ISZERO PUSH2 0xC05 JUMPI PUSH2 0xC04 PUSH2 0xC10 JUMP JUMPDEST JUMPDEST PUSH1 0x1 DUP3 ADD SWAP1 POP SWAP2 SWAP1 POP JUMP JUMPDEST PUSH32 0x4E487B7100000000000000000000000000000000000000000000000000000000 PUSH1 0x0 MSTORE PUSH1 0x11 PUSH1 0x4 MSTORE PUSH1 0x24 PUSH1 0x0 REVERT JUMPDEST PUSH32 0x4E487B7100000000000000000000000000000000000000000000000000000000 PUSH1 0x0 MSTORE PUSH1 0x12 PUSH1 0x4 MSTORE PUSH1 0x24 PUSH1 0x0 REVERT JUMPDEST PUSH32 0x4E487B7100000000000000000000000000000000000000000000000000000000 PUSH1 0x0 MSTORE PUSH1 0x22 PUSH1 0x4 MSTORE PUSH1 0x24 PUSH1 0x0 REVERT JUMPDEST PUSH1 0x0 DUP1 REVERT JUMPDEST PUSH1 0x0 DUP1 REVERT JUMPDEST PUSH1 0x0 DUP1 REVERT JUMPDEST PUSH1 0x0 DUP1 REVERT JUMPDEST PUSH1 0x0 DUP1 REVERT JUMPDEST PUSH1 0x0 PUSH1 0x1F NOT PUSH1 0x1F DUP4 ADD AND SWAP1 POP SWAP2 SWAP1 POP JUMP JUMPDEST PUSH32 0x4E6F7420656E6F7567682065746865722070726F76696465642E000000000000 PUSH1 0x0 DUP3 ADD MSTORE POP JUMP JUMPDEST PUSH2 0xCF9 DUP2 PUSH2 0xB1A JUMP JUMPDEST DUP2 EQ PUSH2 0xD04 JUMPI PUSH1 0x0 DUP1 REVERT JUMPDEST POP JUMP JUMPDEST PUSH2 0xD10 DUP2 PUSH2 0xB58 JUMP JUMPDEST DUP2 EQ PUSH2 0xD1B JUMPI PUSH1 0x0 DUP1 REVERT JUMPDEST POP JUMP INVALID LOG2 PUSH5 0x6970667358 0x22 SLT KECCAK256 0xDE 0x4E SWAP4 OR 0xF8 0xB0 PUSH23 0x82D620E3AAA02186B10B2F2F2F508CD5ADEF441587C742 0x1F DUP16 PUSH5 0x736F6C6343 STOP ADDMOD SMOD STOP CALLER "},"gasEstimates":{"creation":{"codeDepositCost":"682400","executionCost":"infinite","totalCost":"infinite"},"external":{"approveRequest(uint256)":"infinite","approvers(address)":"2868","approversCount()":"2429","contribute()":"51024","createRequest(string,uint256,address)":"infinite","finalizeRequest(uint256)":"infinite","manager()":"2559","minimumContribution()":"2473","requests(uint256)":"infinite"}},"methodIdentifiers":{"approveRequest(uint256)":"d7d1bbdb","approvers(address)":"0a144391","approversCount()":"82fde093","contribute()":"d7bb99ba","createRequest(string,uint256,address)":"8a9cfd55","finalizeRequest(uint256)":"03441006","manager()":"481c6a75","minimumContribution()":"937e09b1","requests(uint256)":"81d12c58"}},"storageLayout":{"storage":[{"astId":63,"contract":"Campaign.sol:Campaign","label":"numRequests","offset":0,"slot":"0","type":"t_uint256"},{"astId":68,"contract":"Campaign.sol:Campaign","label":"requests","offset":0,"slot":"1","type":"t_mapping(t_uint256,t_struct(Request)60_storage)"},{"astId":70,"contract":"Campaign.sol:Campaign","label":"manager","offset":0,"slot":"2","type":"t_address"},{"astId":72,"contract":"Campaign.sol:Campaign","label":"minimumContribution","offset":0,"slot":"3","type":"t_uint256"},{"astId":76,"contract":"Campaign.sol:Campaign","label":"approvers","offset":0,"slot":"4","type":"t_mapping(t_address,t_bool)"},{"astId":78,"contract":"Campaign.sol:Campaign","label":"approversCount","offset":0,"slot":"5","type":"t_uint256"}],"types":{"t_address":{"encoding":"inplace","label":"address","numberOfBytes":"20"},"t_bool":{"encoding":"inplace","label":"bool","numberOfBytes":"1"},"t_mapping(t_address,t_bool)":{"encoding":"mapping","key":"t_address","label":"mapping(address => bool)","numberOfBytes":"32","value":"t_bool"},"t_mapping(t_uint256,t_struct(Request)60_storage)":{"encoding":"mapping","key":"t_uint256","label":"mapping(uint256 => struct Campaign.Request)","numberOfBytes":"32","value":"t_struct(Request)60_storage"},"t_string_storage":{"encoding":"bytes","label":"string","numberOfBytes":"32"},"t_struct(Request)60_storage":{"encoding":"inplace","label":"struct Campaign.Request","members":[{"astId":45,"contract":"Campaign.sol:Campaign","label":"id","offset":0,"slot":"0","type":"t_uint256"},{"astId":47,"contract":"Campaign.sol:Campaign","label":"description","offset":0,"slot":"1","type":"t_string_storage"},{"astId":49,"contract":"Campaign.sol:Campaign","label":"value","offset":0,"slot":"2","type":"t_uint256"},{"astId":51,"contract":"Campaign.sol:Campaign","label":"recipient","offset":0,"slot":"3","type":"t_address"},{"astId":53,"contract":"Campaign.sol:Campaign","label":"complete","offset":20,"slot":"3","type":"t_bool"},{"astId":55,"contract":"Campaign.sol:Campaign","label":"approvalCount","offset":0,"slot":"4","type":"t_uint256"},{"astId":59,"contract":"Campaign.sol:Campaign","label":"approvals","offset":0,"slot":"5","type":"t_mapping(t_address,t_bool)"}],"numberOfBytes":"192"},"t_uint256":{"encoding":"inplace","label":"uint256","numberOfBytes":"32"}}},"userdoc":{"kind":"user","methods":{},"version":1}}